:020000040800F2
:10000000280F00202D020008CD2B0008A92600088B
:10001000C92B000839050008613400080000000001
:10002000000000000000000000000000012C00089B
:100030004906000800000000FD2B0008352C0008D0
:10004000470200084702000847020008470200086C
:10005000470200084702000847020008470200085C
:10006000470200084702000847020008470200084C
:10007000470200083D050008470200084D0500083A
:100080005D05000847020008470200084702000813
:10009000470200084702000847020008470200081C
:1000A000470200084702000847020008470200080C
:1000B00047020008470200084702000847020008FC
:1000C00047020008470200084702000847020008EC
:1000D00047020008470200084702000847020008DC
:1000E00047020008470200084702000847020008CC
:1000F0004702000847020008470200086D05000893
:100100004702000847020008592C0008470200086F
:10011000470200084702000847020008692C00084F
:10012000470200087D050008470200084702000852
:10013000470200084702000847020008470200087B
:10014000470200084702000847020008470200086B
:10015000470200084702000847020008470200085B
:10016000470200084702000847020008470200084B
:10017000470200084702000847020008000000008C
:10018000470200084702000800F002F800F03EF8BD
:100190000AA090E8000C82448344AAF10107DA45E2
:1001A00001D100F033F8AFF2090EBAE80F0013F0F6
:1001B000010F18BFFB1A43F0010318474850000015
:1001C00068500000103A24BF78C878C1FAD85207A6
:1001D00024BF30C830C144BF04680C6070470000C1
:1001E0000023002400250026103A28BF78C1FBD840
:1001F000520728BF30C148BF0B6070471FB504F0DD
:10020000E8FF00F01BF91FBD10B510BD00F05AF952
:100210001146FFF7F3FF04F087F900F078F903B413
:10022000FFF7F2FF03BC00F07FF9000009488047A8
:1002300009480047FEE7FEE7FEE7FEE7FEE7FEE7C8
:10024000FEE7FEE7FEE7FEE704480549054A064BE0
:10025000704700003D2C0008890100082809002093
:10026000280F0020280B0020280B002053EA020C46
:1002700000F069802DE9F04B4FF00006002B1FBF06
:10028000B3FA83F503FA05F424FA05F65E4012BFCB
:100290001643B2FA82F502FA05F4C5F120051EBF35
:1002A00022FA05FC44EA0C04203556EA044C4FEAD5
:1002B000144418BF641C4FF000084FF0000990422E
:1002C00071EB030C39D3002919BFB1FA81F701FA98
:1002D00007F6B0FA80F700FA07F6C7F120071EBF4D
:1002E00020FA07FC46EA0C062037B6FBF4FCA7EB25
:1002F0000507103F07F01F0BCBF120062CFA06F67E
:100300000CFA0BFB44BFB3460026202FA4BF5E4669
:100310004FF0000B5BEA060C08BF4FF0010B19EB26
:100320000B0948EB0608ABFB027C06FB02CC0BFB7F
:1003300003CCC01B71EB0C01C1E70B4602464146E2
:100340004846BDE8F08B13B5084318BF4FF0FF30A7
:100350000146AFF30080BDE81C407047032A40F21D
:10036000308010F0030C00F0158011F8013BBCF157
:10037000020F624498BF11F801CB00F8013B38BF6F
:1003800011F8013BA2F1040298BF00F801CB38BF7D
:1003900000F8013B11F0030300F06280083AC0F05E
:1003A000088051F8043B083A51F804CBA0E8081043
:1003B000F5E7121D5CBF51F8043B40F8043BAFF376
:1003C0000080D20724BF11F8013B11F801CB48BFD0
:1003D00011F8012B24BF00F8013B00F801CB48BF06
:1003E00000F8012B70474FF0000200B51346944609
:1003F0009646203922BFA0E80C50A0E80C50B1F17D
:100400002001BFF4F7AF090728BFA0E80C5048BF90
:100410000CC05DF804EB890028BF40F8042B08BF2E
:10042000704748BF20F8022B11F0804F18BF00F82A
:10043000012B7047704770477047000070B5064C3D
:100440007C44064D7D4404E0204601680844804712
:10045000241DAC42F8D170BDE04D0000E04D00001D
:1004600010B5203AC0F00B80B1E81850A0E8185041
:10047000B1E81850A0E81850203ABFF4F5AF5FEA91
:10048000027C24BFB1E81850A0E8185044BF18C936
:1004900018C0BDE810405FEA827C24BF51F8043BDD
:1004A00040F8043B08BF7047D20728BF31F8023B31
:1004B00048BF11F8012B28BF20F8023B48BF00F8C5
:1004C000012B7047754600F02BF8AE4605006946D3
:1004D000534620F00700854618B020B5FFF7B4FE5C
:1004E000BDE820404FF000064FF000074FF0000835
:1004F0004FF0000BAC46ACE8C009ACE8C009ACE872
:10050000C009ACE8C00921F007018D46704710B55D
:100510000446AFF300802046BDE81040FFF77FBEE1
:10052000004870472000002001491820ABBEFEE7BC
:100530002600020070470000FEE7000080B540F290
:100540000840C2F2000000F083F880BD80B540F2A0
:10055000E820C2F2000000F07BF880BD80B540F2D8
:100560004830C2F2000000F073F880BD80B540F260
:10057000A830C2F2000000F06BF880BD80B540F2F8
:100580006840C2F2000000F063F880BDD0F800C0FF
:100590006FF00F024AF6AB2352FA8CF2CAF6AA2386
:1005A0000146A2FB0330000905A31B5C40F2FF30AB
:1005B0002CEA00005F2A88BF0430C1E916037047A7
:1005C00000061016000610168269816AB2F5005FF7
:1005D00006D06AB9022912D0012914D0D1B90EE08F
:1005E000032917D8DFE801F0020B020F0120704742
:1005F00003293CBF012070471CBF00207047C06A20
:10060000C0F300607047C06AA0F1C070B0FA80F01B
:10061000400970470020704780B5D0F800C0D0F87E
:1006200008E0DCF80000BEF1400F20F48020CCF898
:1006300000000846CCF8043004BF10460A46CCF847
:100640000800CCF80C2080BD704700007047000007
:10065000F0B581B004460020009040F21000C2F2D4
:1006600000000268D4E9166048F2B5133768082123
:10067000C1F64E3381403942A2FB03250CD02268DB
:1006800013685B0708D5136823F004031360B16097
:10069000616D41F00101616501218140394208D05D
:1006A00022685269120604D5B160616D41F0020101
:1006B000616504218140394208D02268126892079E
:1006C00004D5B160616D41F0040161651021814084
:1006D000394215D020680268120711D5B16002684E
:1006E0000168520306D4C90506D4016821F0080147
:1006F000016001E0080342D4216C09B1204688471B
:10070000E16D202000FA01F23A4244D020680368EB
:10071000DB0640D5B26094F835300268052B1ED157
:1007200022F016020260426922F080024261226CCD
:100730000AB9A26C1AB1026822F0080202603F20D6
:100740008840B060002084F83400012084F835002F
:10075000216D002940D02046884701B0F0BD0168D6
:10076000520310D4C90512D4016821F010010160B0
:10077000002084F83400012084F8350007E0A16CE3
:100780000029BBD1BCE7080301D4616C00E0E16B38
:1007900009B120468847606DF0B1606DC00717D081
:1007A000052084F835002068A90A026822F00102B9
:1007B000026000BF009A01328A42009202D80268A9
:1007C000D207F7D1002084F83400012084F83500E6
:1007D000E16C09B12046884701B0F0BD2DE9F04138
:1007E000044600F083F9C4B10546002084F83400C3
:1007F000022084F835002068016821F001010160C1
:1008000026683068C0070BD000F070F9401B05283F
:10081000F6D903212022032042E00120BDE8F08127
:10082000306848F23F01CFF21001251D00EA010CAB
:100830002ECDD4E9050E41EA0C0111431943294399
:10084000D4E90778084340EA0E01606A3943042876
:1008500041EA080103D1D4E90B2311431943316064
:100860007169042821F0070141EA00050CD1D4E99F
:100870000A1045EA010538B12046FFF7A5FE18B178
:100880000121402201200BE020467561FFF77EFE2A
:10089000E16D3F2202FA01F1816000220121002076
:1008A000626584F83510BDE8F0810000B0B50446FB
:1008B00090F83400012828D0012084F83400A56D78
:1008C00094F8350001281DD1022084F8350000205D
:1008D00060652046FFF7A0FEE26D3F23206803FA23
:1008E00002F2216CAA60026842F01602026019B19D
:1008F000016841F008010160016841F001010160F7
:100900000020B0BD002084F834000220B0BD0000FB
:10091000B0B5044600F0EAF8054640F21400C2F211
:1009200000000078611C18BF044400BF00F0DEF82E
:10093000401BA042FAD3B0BD2DE9F04F83B000F1C7
:100940003E4202F1FF724FEAB22241F600470192A5
:10095000C4F2020708224FF0010E00254FF0000AF2
:100960004FF00008B84208BF072200920AE000BF1B
:1009700008F101080AF1040AB8F1100F05F10205A7
:1009800000F0A2800C680EFA08FB14EA0B09EFD005
:100990004C6804F0030CACF1010EBEF1010F12D84B
:1009A00082680323CE6803FA05F7BA4306FA05F70F
:1009B0003A4382604268C4F3001722EA0B0207FA46
:1009C00008F73A434260BCF1030F1CD0C26803230E
:1009D0008E6803FA05F7BA4306FA05F73A43BCF105
:1009E000020FC2600FD16FF0030202EA5802024404
:1009F0000AF01C060F23176A03FA06F40B69A743D3
:100A0000B3403B431362026803234F68AB409A43F1
:100A100007F00303AB401A43FB004FF0010E0260E6
:100A2000A6D5002243F644030292C4F202031A68D8
:100A300043F6004442F480421A601A68C4F201048A
:100A400002F480420292029A28F003024FF6084B09
:100A50002244CFF6FF7B52F80B300AF00C070F262A
:100A6000BE4023EA060C019B009E072B38BF1E46A2
:100A700006FA07F747EA0C0342F80B3022684B6886
:100A800042EA0907DE0358BF22EA090727606268C5
:100A90009E0342EA090758BF22EA09076760A26875
:100AA000DE0242EA090758BF22EA0907A76043F6B7
:100AB0000C47C4F201073A689B0242EA090358BF97
:100AC00022EA09033B6053E703B0BDE8F08F000062
:100AD000426902EA0103914341EA0341816170479F
:100AE000002A08BF090481617047000040F6241005
:100AF000C2F2000000687047002804BF0120704760
:100B000010B5044690F83D0078B9002084F83C0008
:100B1000204602F005FCE06E20B942F2E150C0F63A
:100B20000000E066E16E20468847242084F83D00FE
:100B30002068C16821F40051C160204602F022FC07
:100B40002068016921F490410161416921F022018D
:100B50004161416941F008014161C16841F40051BE
:100B6000C16000202021206484F83D1084F83E10EC
:100B700010BD0000F0B581B0B0B3044690F83D0060
:100B800028B9002084F83C00204600F061FB2420B6
:100B900084F83D002068016821F0010101600168CE
:100BA00041F400410160016821F40041016000F05E
:100BB000C9FC48F28041C0F21E0140F6001265688F
:100BC00088424FF00001C0F23D0248F2A16C4FF0A4
:100BD000000338BF01219042C0F2010C38BF01234D
:100BE000654538BF0B4613B1012001B0F0BD4DF68D
:100BF0008361C4F21B31A0FB011221684FEA924EBF
:100C00004B684FF4967623F03F0343EA92434B60E0
:100C100044F6D3530F6A0EFB06F6C1F26203A6FB3D
:100C2000033627F03F03B709654538BF970C7A1C98
:100C30001A430A62CA6948F2A0674CF6FF73C0F211
:100C40000107BD4222EA030C0AD801386A00B0FB52
:100C5000F2F001306FF31F30042898BF04202BE01E
:100C6000A368A0F1010E9BB119206843BEFBF0F010
:100C70000422013062F31F30000512D09BB119200D
:100C80006843BEFBF0F00422013062F31F3011E034
:100C900005EB4500BEFBF0F001306FF31F3000059F
:100CA000ECD1012008E005EB4500BEFBF0F001307F
:100CB0006FF31F3040F4004040EA0C00C861086840
:100CC000D4E9072320F0C000104318430860886867
:100CD00048F2FF3204F10C0790438CCF18431043C5
:100CE000A6698860C86820F0FF0038433043C860B8
:100CF000086840F00100086000202021206484F88A
:100D00003D10206384F83E0001B0F0BD2DE9F043B2
:100D100083B01E4615460F460446FFF7E7FE94F8DB
:100D20003D1020290FD102218146C0F2100120463A
:100D300001221923CDF8009001F066FE18B994F84D
:100D40003C00012803D1022003B0BDE8F08301215B
:100D5000206884F83C100168DDF82880C90703D1B9
:100D6000016841F0010101600168424621F400611F
:100D70000160222084F83D00102084F83E0000200D
:100D8000206465626685608D394620850020CFF637
:100D9000FF70E06220464B4601F0A0FC18B1012034
:100DA00003B0BDE8F083208D022806D001280DD0C5
:100DB000E8B90020029020680FE02068016821F463
:100DC00080610160016841F4006114E020680168FD
:100DD00021F48061016000210291416902918169E1
:100DE00002910299016841F4007101600BE02068F2
:100DF000016841F480610160002102914169029122
:100E0000806902900298208D002877D00427C0F2D4
:100E1000010716E0204641464A4601F075FE0028CB
:100E2000BDD12068616A00690870606A218D013057
:100E30006062481E2085608D01386085208D002805
:100E40005CD003283ED802281CD00128E2D02046DE
:100E5000394600224346CDF8009001F0D5FD002828
:100E60009DD12068616A026822F480620260006994
:100E70000870606A218D01306062481E2085608D97
:100E8000013860852046394600224346CDF800905F
:100E900001F0BAFD00287FF482AF2068616A026821
:100EA00042F40072026000690870606A2268411CA6
:100EB0006162218D01392185618D01396185116959
:100EC0004170B2E7204641464A4601F01DFE002827
:100ED0007FF465AF2068616A00690870606A228DDE
:100EE0000130013A606222852168628D013A628593
:100EF0004A695207A2D50969017096E7202084F853
:100F00003D00002084F83E0084F83C0003B0BDE8BA
:100F1000F08300002DE9F04383B01F4616460D46CE
:100F20000446FFF7E3FD94F83D1020290FD102217C
:100F30008146C0F21001204601221923CDF800900D
:100F400001F062FD18B994F83C00012803D1022099
:100F500003B0BDE8F0830121226884F83C101368D7
:100F6000DDE90B080A99DB0703D1136843F001039D
:100F70001360136823F400631360222284F83D2079
:100F8000402284F83E200022226461626085608DE8
:100F9000294620850020CFF6FF70E06220463246C9
:100FA0003B46CDF80080CDF8049001F017FC18B155
:100FB000012003B0BDE8F083208D022806D001286F
:100FC00010D000BB00200290206812E02068016869
:100FD00021F480610160016841F400610160002139
:100FE000029113E02068016821F480610160002112
:100FF000029141690291816902910299016841F46B
:101000000071016007E000200290206841690291B0
:10101000806902900298208D002877D00427C0F2C2
:10102000010716E0204641464A4601F06DFD0028C2
:10103000BED12068616A00690870606A218D013044
:101040006062481E2085608D01386085208D0028F3
:101050005CD003283ED802281CD00128E2D02046CC
:10106000394600224346CDF8009001F0CDFC00281F
:101070009ED12068616A026822F480620260006981
:101080000870606A218D01306062481E2085608D85
:10109000013860852046394600224346CDF800904D
:1010A00001F0B2FC00287FF483AF2068616A026817
:1010B00042F40072026000690870606A2268411C94
:1010C0006162218D01392185618D01396185116947
:1010D0004170B2E7204641464A4601F015FD00281E
:1010E0007FF466AF2068616A00690870606A228DCB
:1010F0000130013A606222852168628D013A628581
:101100004A695207A2D50969017096E7202084F840
:101110003D00002084F83E0084F83C0003B0BDE8A8
:10112000F08300002DE9F04383B0994616460F4640
:101130000446FFF7DBFC94F83D1020290ED1022174
:101140000546C0F21001204601221923009501F046
:101150005BFC18B994F83C00012803D1022003B0CD
:10116000BDE8F0830121226884F83C101368DDE9B2
:101170000B080A99DB0703D1136843F001031360DE
:10118000136823F400631360212284F83D20402279
:1011900084F83E200022226461626085608D3946B9
:1011A00020850020CFF6FF70E062204632464B4695
:1011B000CDF80080019501F097FB30B3012003B01A
:1011C000BDE8F083204641462A4601F0CDFC28BB0D
:1011D000606A2168034613F8012B0A61228D63625D
:1011E000571E2785638D3F04A3F1010363854B6977
:1011F00018BF13F0040308D0437802300B6160621B
:10120000901E2085608D01386085208D0028D9D101
:10121000204641462A4601F0C7FB40B1206C042815
:10122000CCD12068016841F400710160C6E72068F4
:10123000016841F400710160202084F83D00002025
:1012400084F83E0084F83C0003B0BDE8F083000061
:10125000B0B586B045F200410068C4F20001002438
:1012600088420594CDE903440294019401D006B06C
:10127000B0BD43F630050094C4F20205286840F082
:1012800002002860286800F00200009000984FF4E7
:1012900010700190122002900120CDE90304042077
:1012A000059001F5D83001A9FFF746FB00942869A5
:1012B00040F400102861286900F4001000900098A4
:1012C00006B0B0BD40F2140040F62411C2F2000096
:1012D000C2F2000100780A681044086070470000FC
:1012E00080B543F60040C4F20200016841F4007189
:1012F0000160016841F480610160016841F480711E
:101300000160032000F064F8002000F005F800F010
:101310002BF8002080BD0000B0B540F21402C2F2EC
:10132000000240F210011278C2F200014FF47A7309
:101330000968B3FBF2F20446B1FBF2F1084600F093
:10134000FFFA0F2C4FF001050CD858B94FF0FF30C1
:1013500021460022002500F02BF840F21800C2F2CE
:10136000000004602846B0BD80B582B0002043F67E
:1013700040010190C4F202014A6842F480424A608E
:101380004A6802F480420192019A0090086840F095
:1013900080500860086800F0805000900098072096
:1013A00000F016F802B080BD80B502F0FBFF80BDF2
:1013B00070B514460D46064603F004F82946224649
:1013C00001F006FC0146304603F004F870BD000051
:1013D00080B503F011F880BD2DE9F041002800F040
:1013E0008B8043F60808C4F202080446D8F8F803D4
:1013F0000D4600F00700884207D288F8F853D8F865
:10140000F80300F00700A84276D12068810717D5BD
:10141000410705D5D8F8001041F4E051C8F8001094
:10142000010705D5D8F8001041F46041C8F8001054
:10143000D8F80010A26821F0F0011143C8F800109C
:10144000C0073FD1D8F8F80300F00700A84207D939
:1014500088F8F853D8F8F80300F00700A8424BD1F9
:101460002068410707D5D8F80010E26821F4E05160
:101470001143C8F80010000708D5D8F8000021690A
:1014800020F4604040EAC100C8F8000000F07EF897
:10149000D8F8001045F2EC12C1F30311C0F60002B7
:1014A000515C40F2100220FA01F140F21800C2F241
:1014B00000000068C2F200021160FFF72DFF00205B
:1014C000BDE8F0816068811E022907D258F8081C27
:1014D00089015CBF0120BDE8F08110E0012807D13F
:1014E00058F8081C89035CBF0120BDE8F08106E0C4
:1014F00058F8081C890702D40120BDE8F081D8F80B
:10150000001021F003010843C8F80000FFF7EEFACD
:10151000064641F2883700BFD8F80000616800F045
:101520000C00B0EB810F8DD0FFF7E0FA801BB842C2
:10153000F2D90320BDE8F08140F21000C2F20000B1
:101540000068704780B5FFF7F7FF43F60801C4F263
:101550000201096845F2FC12C1F38221C0F60002C3
:10156000515CC84080BD000080B5FFF7E5FF43F641
:101570000801C4F20201096845F2FC12C1F34231CC
:10158000C0F60002515CC84080BD000010B543F6B3
:101590000404C4F20204606800F00C0142F200404E
:1015A0000829C0F2F40007D0042918BF10BD41F289
:1015B0000020C0F27A0010BD216801F03F022168CE
:1015C00023684902C3F3881105D4A1FB000100235D
:1015D000FEF74CFE06E041F20020C0F27A004843DC
:1015E000B0FBF2F021680222C1F3014102EB41019C
:1015F000B0FBF1F010BD00002DE9F04182B00028F1
:1016000000F0A2800446007843F60006C007C4F24A
:10161000020643D0B06800F00C00042805D1306801
:1016200080033BD56068C8BB8EE0B06800F00C005A
:10163000082802D170684002F1D46568B5F5A02F82
:101640000AD0B5F5803F0BD0306820F48030306090
:10165000306820F4802006E0306840F4802030605C
:10166000306840F480303060FFF740FA002D0546C6
:1016700011D000BF3068800310D4FFF737FA401B49
:101680006428F7D922E100BFFFF730FA401B642835
:101690004FF0030055D830688003F5D420788007D8
:1016A0001AD5B06810F00C0F09D0B06800F00C002B
:1016B000082840F08A807068400200F18680306817
:1016C000800702D5E06801283ED13068216920F00A
:1016D000F80040EAC10030602078000738D4207854
:1016E00040074CD4A5695DB3B06800F00C00082831
:1016F00040F09E80012D27D07068E16900F48002DF
:101700008A4221D1216A00F03F028A421CD147F669
:10171000C071626A0140B1EB821F15D1A26A002339
:10172000CFF6FF7303EBC23200F440316FF30F02C8
:10173000914209D1E16A00F07060B0EB016F03D112
:10174000002002B0BDE8F081012002B0BDE8F081C8
:101750006069002840F20000C4F2472057D0012100
:10176000C0F8801EFFF7C2F9054600BF706F800702
:10177000B5D4FFF7BBF9401B0228F7D9A6E0306CBF
:1017800010F080580AD100200190306C40F0805059
:101790003064306C00F080500190019847F20007EF
:1017A000C4F200073868C00524D4386840F480705B
:1017B0003860FFF79BF905463868C0051AD4FFF773
:1017C00095F9401B0228F7D980E0E068002851D045
:1017D0000020C4F2472001210160FFF787F9054688
:1017E000306880073FF571AFFFF780F9401B022892
:1017F000F6D96BE0A568052D50D0012D52D0306F81
:1018000020F001003067306F20F004004DE000212F
:10181000C0F8801EFFF76AF9054600BF706F8007A9
:101820007FF55DAFFFF762F9401B0228F6D94DE066
:101830000027C4F2472700203866FFF757F9022D2A
:1018400005460BD13068800158D5FFF74FF9401B92
:1018500002284FF00300F5D973E700BF306880011C
:101860007FF56EAFFFF742F9401B02284FF00300EF
:10187000F4D966E70020C4F2472000210160FFF799
:1018800035F90546306880077FF526AFFFF72EF95A
:10189000401B02284FF00300F4D952E7306F40F0AC
:1018A00004003067306F40F001003067FFF71EF929
:1018B000002D054641F2883714D000BF306F8007F5
:1018C00013D4FFF713F9401BB842F7D9032002B035
:1018D000BDE8F081FFF70AF9401BB8424FF0030062
:1018E0003FF62FAF306F8007F4D4B8F1000F7FF4CC
:1018F000F9AE306C20F080503064F3E604F11C0542
:101900002FCD08430021CFF6FF7140EA821001EB92
:10191000C3316FF30F0140EA056008437060012096
:101920003866FFF7E3F80446306880013FF508AFFA
:10193000FFF7DCF8001B02284FF00300F4D900E7A2
:1019400080B501F05FF980BD70470000704700006E
:101950007047000010B590F83C20012A4FF00202B9
:1019600052D0012380F83C3080F83D200268D2F844
:1019700004E0D2F808C00C682EF07003234341F253
:10198000FF74C4F20004A24253600DDC40F2FF7306
:10199000C4F200039A4215DCB2F1804F29D040F224
:1019A0000043C4F2000322E040F2FF33C4F201031B
:1019B0009A4212DC41F60003C4F200039A4218D0A6
:1019C000002312E040F60003C4F200039A4210D054
:1019D00040F60043C4F2000309E044F20003C4F2FD
:1019E00001039A4205D040F20043C4F201039A4237
:1019F00004D149682CF08003194391600121002231
:101A000080F83D1080F83C20104610BD002804BF2F
:101A10000120704710B5044690F83D0078B90020C9
:101A200084F83C00204601F01FFBA06C20B941F671
:101A30007D20C0F60000A064A16C204688470220EB
:101A400084F83D002068211D01F016F9012084F87A
:101A5000460084F83E0084F83F0084F8400084F893
:101A6000410084F8420084F8430084F8440084F87C
:101A7000450084F83D00002010BD000010B586B080
:101A8000006841F20042C4F2000200219042CDE918
:101A90000411CDE9021101912FD040F60041C4F2AA
:101AA0000001884240D1002043F640010090C4F27A
:101AB00002010A6842F008020A600A6802F008029D
:101AC0000092009A009051F8102C42F0010241F867
:101AD000102C51F8101C01F0010100910099022115
:101AE000CDE903100020CDE901110591C4F20200F7
:101AF00001A9FEF721FF32240EE043F640000091D9
:101B0000C4F202000168372441F02001016000683E
:101B100000F0200000900098204600210022FFF7EE
:101B200047FC2046FFF740FC06B010BD90F83D1082
:101B300001291CBF01207047022180F83D10006878
:101B400041F2FF72C168C4F20002904241F001010B
:101B5000C1600DDC40F2FF71C4F20001884215DC67
:101B6000B0F1804F29D040F20041C4F2000122E0E0
:101B700040F2FF31C4F20101884212DC41F600015B
:101B8000C4F20001884218D0002112E040F60001A2
:101B9000C4F20001884210D040F60041C4F20001B6
:101BA00009E044F20001C4F20101884205D040F28C
:101BB0000041C4F20101884206D1816801F00701A9
:101BC000062904BF00207047016841F0010101604F
:101BD0000020704770470000704700007047000009
:101BE000B0B5044690F83C00012804BF0220B0BD07
:101BF0000D460120082A84F83C000CD0042A18D095
:101C00000ABB2068D5E90012EB6801F0CDFA206824
:101C100050F8181F08E02068D5E90012EB6801F0C1
:101C200047FB206850F81C1F21F00C010160A968D7
:101C300017E02068D5E90012EB6801F01BFB206873
:101C400050F8181F08E02068D5E90012EB6801F091
:101C500049FB206850F81C1F21F440610160A9680D
:101C60000902026811430160002084F83C00B0BD05
:101C7000002804BF0120704710B5044690F83D00CD
:101C800078B9002084F83C00204601F0EDF9206D81
:101C900020B941F6E140C0F600002065216D2046E4
:101CA0008847022084F83D002068211D00F0E4FFF1
:101CB000012084F8460084F83E0084F83F0084F850
:101CC000400084F8410084F8420084F8430084F81E
:101CD000440084F8450084F83D00002010BD000059
:101CE0007047000010B5044600680169890744BFC9
:101CF000C1685FEA817138D420680169490744BF2F
:101D0000C1685FEA41713BD420680169090744BF9B
:101D1000C1685FEA01713FD420680169C90644BF08
:101D2000C1685FEAC16142D420680169C9071CBF6C
:101D3000C1685FEAC17146D120680169090644BFE4
:101D4000C1685FEA016146D420680169490644BF61
:101D5000C1685FEA416146D420680169890644BFD1
:101D6000C1685FEA816146D410BD6FF00201016174
:101D7000012121778069800745D0D4F8901048E090
:101D80006FF00401016102212177806910F4407F26
:101D900044D0D4F8901047E06FF0080101610421AD
:101DA0002177C069800744D0D4F8901047E06FF0E5
:101DB0001001016108212177C06910F4407F43D0F0
:101DC000D4F8901046E06FF001010161D4F8801062
:101DD00020468847B0E76FF080010161D4F8B01069
:101DE00020468847B0E76FF040010161D4F88810C1
:101DF00020468847B0E76FF020010161D4F8A810B1
:101E00002046884710BDD4F8981020468847D4F85B
:101E10009C1020468847002020776DE7D4F8981062
:101E200020468847D4F89C10204688470020207719
:101E30006AE7D4F8981020468847D4F89C102046CA
:101E400088470020207767E7D4F898102046884715
:101E5000D4F89C10204688470020207764E70000D3
:101E600080B586B040F200410068C4F20001002253
:101E700088420592CDE903220292019201D006B078
:101E800080BD43F630000092C4F20200036843F0C4
:101E900002030360006800F0020000900098332005
:101EA00001900220CDE90202CDE9042001F50030C5
:101EB00001A9FEF741FD06B080BD000010B5044643
:101EC00090F83C00012804BF022010BD4FEAB20088
:101ED0000123032884F83C3014D80FF20602DFE80F
:101EE00000F002060A0E206800F0FAFF0AE02068FF
:101EF00001F028F806E0206801F05AF802E02068B6
:101F000001F08AF8002084F83C0010BD7047000002
:101F1000002804BF0120704710B5044690F83D002A
:101F200078B9002084F83C00204601F09DF8A06DAF
:101F300020B941F68170C0F60000A065A16D204671
:101F40008847022084F83D002068211D00F094FE9F
:101F5000012084F8460084F83E0084F83F0084F8AD
:101F6000400084F8410084F8420084F8430084F87B
:101F7000440084F8450084F83D00002010BD0000B6
:101F800070470000B0B5044690F83C00012804BF3B
:101F90000220B0BD4FEAB2000D460121032884F8AB
:101FA0003C1036D8DFE800F0020A122220682946E9
:101FB00000F096FF206850F8181F0EE020682946B0
:101FC00000F0C0FF206850F8181F16E0206829466E
:101FD00000F0EEFF206850F81C1F41F0080101607E
:101FE000016821F00401016029690FE02068294699
:101FF00001F012F8206850F81C1F41F400610160E4
:10200000016821F4806101602969090202681143B5
:102010000160002084F83C00B0BD0000002804BF2F
:102020000120704710B5044690F83D0078B90020B3
:1020300084F83C00204601F017F8206E20B942F2E7
:102040008D00C0F600002066216E204688470220E1
:1020500084F83D002068211D00F00EFE012084F868
:10206000460084F83E0084F83F0084F8400084F87D
:10207000410084F8420084F8430084F8440084F866
:10208000450084F83D00002010BD00002DE9F04F10
:1020900081B00446006840F20041C4F20001884269
:1020A00002D001B0BDE8F08F43F640010026C4F233
:1020B00002010096086840F2E82540F0020008603E
:1020C000086846F2700100F002000090C4F20201BC
:1020D0000098C2F200054FF020694FF48060C5E916
:1020E000001905F1100140274FF4805A4FF4804B3E
:1020F0004FF4807281E8010C4FF440382846C5E95E
:102100000276EA61C5E90886FEF768FB002818BF79
:10211000FEF79CFA46F270006562AC63A563AC639F
:10212000C4F2020040F248351830C2F20005C5E999
:1021300000094FF4806005F1100181E8010C4FF4B3
:102140008070C5E907082846C5E902766E62FEF789
:1021500045FB002818BFFEF779FA46F27000A56229
:10216000AC63C4F2020040F2A8354830C2F2000568
:102170004FF020614FF04008002685E8030105F18B
:102180000C004FF480694FF4805A4FF4804B4FF4A9
:10219000807280E8400E4FF440372846EA61C5E976
:1021A0000876FEF71BFB002818BFFEF74FFA43F630
:1021B0004000E562AC63C4F2020040F2084500F55D
:1021C0002050C2F2000528604FF02060C5E90108E8
:1021D00005F10C0080E8400E4FF48070C5E9070758
:1021E00028466E62FEF7FAFA002818BFFEF72EFAAC
:1021F0002563AC632562AC6301B0BDE8F08F0000DD
:102200007047000070470000B0B50D46044641B16C
:10221000082D09D0042D14BF04F1410004F13F0042
:1022200004E004F13E0001E004F1400000780228DF
:1022300004BF0220B0BD45B1082D09D0042D14BF44
:1022400004F1410004F13F0004E004F13E0001E02C
:1022500004F140000078012801D112B90BB101202E
:10226000B0BD022045B1082D09D0042D14BF84F85B
:10227000410084F83F0004E084F83E0001E084F867
:1022800040004FEAB500032800F28980DFE800F043
:1022900002224263606A42F6C151C0F60001C16386
:1022A000606A42F62D61C0F600010164606A42F680
:1022B0006961D4F800C0C0F60001C164606A0CF125
:1022C000340C11466246FEF7F1FA0028C7D14FF4EC
:1022D000007060E0A06A42F6C151C0F60001C1631F
:1022E000A06A42F62D61C0F600010164A06A42F6C0
:1022F0006961D4F800C0C0F60001C164A06A0CF1A5
:10230000380C11466246FEF7D1FA0028A7D14FF4E7
:10231000806040E0E06A42F6C151C0F60001C1634E
:10232000E06A42F62D61C0F600010164E06A42F6FF
:102330006961D4F800C0C0F60001C164E06A0CF124
:102340003C0C11466246FEF7B1FA00287FF487AFD5
:102350004FF400601FE0206B42F6C151C0F600014F
:10236000C163206B42F62D61C0F600010164206B51
:1023700042F66961D4F800C0C0F60001C164206B68
:102380000CF1400C11466246FEF790FA00287FF4EB
:1023900066AF4FF480502168CA681043C860206857
:1023A0002946012200F0FAFC206841F2FF71C4F2D4
:1023B000000188420DDC40F2FF71C4F20001884246
:1023C00015DCB0F1804F45D040F20041C4F200016D
:1023D0003EE040F2FF32C4F20102904212DC41F6CC
:1023E0000003C4F20003984234D0002312E040F608
:1023F0000001C4F2000188422CD040F60041C4F232
:10240000000125E044F20003C4F20103984221D008
:1024100040F20043C4F20103984222D1436C884247
:1024200043F400434364C6DD904207DC41F60001FB
:10243000C4F2000188420DD0002107E044F20001FF
:10244000C4F20101884205D040F20041C4F201010A
:10245000884206D1816801F00701062904BF0020E7
:10246000B0BD016841F0010101600020B0BD000075
:102470007047000070470000002A04BF0120704729
:1024800090F83C30012B04BF02207047012380F8F4
:102490003C3090F83D30012B15D11A2900F23F80D5
:1024A000DFE801F021232527292B2D2F3133353764
:1024B000393B0E3F4245484B4E5154575A5D6000E0
:1024C000C0F8802050E090F83D300BB101214CE085
:1024D0000D294FD8DFE801F007090B0D0F11131577
:1024E00017191B1D1F2182643EE0C2643CE0026597
:1024F0003AE0426538E0826536E0C26534E0026663
:1025000032E0426630E082662EE0C2662CE002676E
:102510002AE0426728E0826726E0C26724E00121C2
:1025200023E0C0F884201FE0C0F888201CE0C0F839
:102530008C2019E0C0F8902016E0C0F8942013E039
:10254000C0F8982010E0C0F89C200DE0C0F8A02052
:102550000AE0C0F8A42007E0C0F8A82004E0C0F812
:10256000AC2001E0C0F8B0200021002280F83C201F
:10257000084670470121F8E7B0B5044690F83C00E2
:1025800001284FF0020008BFB0BD012584F83C507F
:1025900084F83D00204600F0B1FD00284FF0010016
:1025A00009D12068C16821F04001C160C16821F4EF
:1025B0008041C1600020002184F83D5084F83C1027
:1025C000B0BD000070470000704700007047000079
:1025D000704700007047000070470000704700001F
:1025E00070B586B0044641F200402168C4F2010093
:1025F000002681420596CDE903660296019601D038
:1026000006B070BD43F630010096C4F202014A697B
:1026100000F5744042F020024A614A6902F020024B
:102620000092009A00960A6842F004020A60096863
:1026300001F00401009100994021019112210291C1
:1026400002210391032104910821059101A9FEF7BC
:1026500073F940F2684546F22840C2F20005C4F220
:1026600002004FF0206185E843004FF400304FF442
:102670008062C5E908062846C5E90362C5E9056622
:10268000EE61FEF7ABF8002818BFFDF7DFFFA5638A
:10269000AC6306B070BD00007047000070470000DA
:1026A0007047000070470000FEE7000002685169B3
:1026B00049054FF000010FD56FF48063536120226C
:1026C000016380F83D2080F83E10026C42F0040265
:1026D000026480F83C100121084670472DE9F04360
:1026E00083B0044600681D461646E26A03680F463A
:1026F00043F4806112F5803F016018BF012A30D198
:10270000016841F48071016020464FF00111002200
:102710003346009500F078F950B120680068C00594
:1027200044BF4FF400702064032003B0BDE8F08381
:10273000206940F20208B0F5804FC0F2010816D1BE
:1027400047F00100C0B22168324608612046414688
:102750002B4600F093F9002818BF012003B0BDE814
:10276000F083082ACCD0216B1129C9D0CCE70620F0
:1027700000EAD719206809F1F001016108F10601AA
:10278000204632462B4600F079F948B92068F9B264
:1027900001612046414632462B4600F06FF918B1E0
:1027A000012003B0BDE8F0830020029020680022E1
:1027B000416933460291816902910299016841F4AD
:1027C0008071016020464FF00111009500F01CF966
:1027D0000028A2D149F0F100B5E700002DE9F0474B
:1027E00082B0044600680E460168DDF828A041F476
:1027F000806101600168DDF82C9041F480711D4614
:102800001746016020464FF0011100225346CDF8D3
:10281000009000F0F9F850B120680068C00544BF8E
:102820004FF400702064032002B0BDE8F08740F24E
:1028300002082068C0F2010806F0FE060661204684
:10284000414652464B4600F019F948BB0020019022
:1028500020684A464169019180695146019001987A
:10286000204600F081F998B9012D08D02068390A76
:102870000161204651464A4600F076F940B9206889
:10288000F9B20161204651464A4600F06DF958B14F
:10289000206C042804D12068016841F400710160B3
:1028A000012002B0BDE8F08720680022016853468D
:1028B00041F48071016020464FF00111CDF8009085
:1028C00000F0A2F80028A7D1206846F001010161BC
:1028D0002046414652464B4600F0D0F8002818BF2B
:1028E000012002B0BDE8F0872DE9F04383B0044633
:1028F00000680D4601680A9F0B9E41F4807199465D
:102900009046016020464FF0011100223B460096A0
:1029100000F07AF850B120680068C00544BF4FF459
:1029200000702064032003B0BDE8F083206805F048
:10293000FE0101610221C0F2010120463A46334600
:1029400000F09CF818B1012003B0BDE8F08300202E
:1029500002902068324641690291806939460290AE
:102960000298204600F000F940B1206C0428EAD11A
:102970002068016841F400710160E4E7B9F1010FDA
:102980000AD020684FEA18210161204639463246B4
:1029900000F0EAF80028E8D120685FFA88F10161C8
:1029A000002003B0BDE8F083F0B581B004460068B4
:1029B0004069400724D415460E464F1C04E000BF72
:1029C0002068406940071BD42046FFF76FFEA0B97E
:1029D000002FF5D0FEF78AF816B1401BB042EFD9B0
:1029E00000202021206384F83D1084F83E00216CF3
:1029F00041F02001216484F83C00012001B0F0BDC9
:102A0000002001B0F0BD00002DE9F047DDF8208086
:102A10001D469146824601F47F078EB25C1C00BFC2
:102A2000DAF80000B7F5803F14BF183014300068A2
:102A30003040801BB0FA80F0400948451BD1002C83
:102A4000EED0FEF753F81DB1A0EB0800A842E7D97D
:102A500000202021CAF830008AF83D108AF83E0094
:102A6000DAF8401041F02001CAF840108AF83C0022
:102A70000120BDE8F0870020BDE8F0872DE9F04196
:102A800004460068984643698FB203EA0701B942D9
:102A900002D10020BDE8F0814169490512D41646F3
:102AA000551C00BF35B1FEF721F816B3A0EB0800A6
:102AB000B0421ED8206841693940B942E9D0416925
:102AC0004905EFD5016841F4007101606FF4806140
:102AD000416100202021206384F83D1084F83E00ED
:102AE000216C41F00401216484F83C000120BDE820
:102AF000F08100202021206384F83D1084F83E00FE
:102B0000216C41F02001EEE770B515460E460446F3
:102B100020684169490613D44169C90612D4FDF7FA
:102B2000E5FF16B1401BB042F2D9002020212063FE
:102B300084F83D1084F83E00206C40F020000CE04A
:102B4000002070BD6FF01001416100202021206342
:102B500084F83D1084F83E00206C2064002084F846
:102B60003C00012070BD0000F0B581B00446006853
:102B70004069000624D415460E464F1C04E000BFF1
:102B80002068406900061BD42046FFF78FFDA0B9DE
:102B9000002FF5D0FDF7AAFF16B1401BB042EFD9C8
:102BA00000202021206384F83D1084F83E00216C31
:102BB00041F02001216484F83C00012001B0F0BD07
:102BC000002001B0F0BD0000FEE7000070470000EB
:102BD00000F0070080F00703042B28BF04234FF008
:102BE000FF3C03380CFA03F338BF002099438140BF
:102BF0000CFA00F022EA000008437047704700001A
:102C000070470000B0B501380024B4EB106F1CBF52
:102C10000120B0BD4EF21005CEF2000568604FF005
:102C2000FF300F2101F0D6FB0720AC602860204662
:102C3000B0BD000080B5FEF745FB80BD4EF6885064
:102C4000CEF20000016841F4700101604FF00061B4
:102C500040F8801C7047000080B540F2D050C2F2AE
:102C60000000FFF73FF880BD80B540F28460C2F2FB
:102C70000000FFF737F880BD10B540F6FF3E03684F
:102C8000C4F2000E40F2004C7045C4F2010C0FDC9F
:102C9000B0F1804F19D040F20042C4F200029042DD
:102CA00013D040F60002C4F2000290420DD010E0B2
:102CB00040F60042C4F20002904206D0604504D0C3
:102CC0000022C4F20102904203D14A6823F070034B
:102CD000134341F6FF72C4F2000290420DDC7045CE
:102CE0001FDCB0F1804F41D040F20042C4F200023C
:102CF00090423BD040F6000221E043F6FF72C4F25E
:102D00000102904220DC42F20002C4F20002904232
:102D10002CD00022C4F20102904227D0604525D079
:102D200028E040F60042C4F2000290421ED041F674
:102D30000002C4F20002904218D041F60042C4F2F0
:102D40000002904212D015E044F20002C4F20102E7
:102D500090420BD044F60002C4F20102904205D02A
:102D600044F20042C4F20102904203D1CA6823F443
:102D70004073134323F080024B69D1F800E08C6864
:102D80001A430260C46240F48062C0F828E06245E1
:102D900004BF096901630121416110BD80B501F0E3
:102DA0001F014FF0010CD0F820E00CFA01F32EEADD
:102DB00003030362036A02FA01F11943016280BD51
:102DC00010B5846B616A814211D0A16A814216D02C
:102DD000E16A81421BD0216B81421FD1C069082169
:102DE0000028217704BF012084F8410016E0C16962
:102DF00001200029207708BF84F83E000EE0C0695A
:102E00000221217750B9012084F83F0006E0C06913
:102E10000421217710B9012084F84000D4F89C10D7
:102E2000204688470020207710BD000010B5846B35
:102E3000616A81420AD0A16A814209D0E16A814275
:102E400008D0216B814207D1082004E0012002E074
:102E5000022000E004202077D4F8A0102046884704
:102E60000020207710BD000010B5846B616A81429C
:102E70000CD0A16A81420ED0E16A814211D0216B4F
:102E8000814214D0012084F83D0015E00120207714
:102E900084F83E0010E002202077012084F83F00F3
:102EA0000AE004202077012084F8400004E0082094
:102EB0002077012084F84100D4F8A41020468847E8
:102EC0000020207710BD0000D0F808C011432CF47A
:102ED0007F4C41EA032141EA0C0181607047000008
:102EE000B0B5026A40F2004522F001020262026AB5
:102EF000D0F804E0D0F818C08C6822F0020240F448
:102F00008063C4F20105AB4242EA040205D1CC68F9
:102F100022F00C0224F0040422430C68AB4207D1D7
:102F2000D1E905532EF4407E45EA0E0545EA030E2D
:102F30002CF073032343C0F804E0836149684163C4
:102F40000262B0BD70B5026A40F2004422F0100285
:102F50000262026AD0F804E0D0F818C08D6822F04E
:102F6000200240F48063C4F20104A34242EA051245
:102F700007D1CD686FF0400622F0C00206EA0515C1
:102F80002A430D68A34207D1D1E905642EF44063BA
:102F900043EA860343EA840E2CF4E64343EA05231E
:102FA000C0F804E0836149688163026270BD00007B
:102FB00070B5026A40F2004422F480720262026A32
:102FC000D0F804E0D0F81CC08D6822F4007240F400
:102FD0008063C4F20104A34242EA052207D1CD680E
:102FE00040F2FF462D0222F44062B5432A430D68A9
:102FF000A34207D1D1E905642EF4405343EA0613F6
:1030000043EA041E2CF073032B43C0F804E0C361B1
:103010004968C163026270BD70B5026A40F2004641
:1030200022F480520262026A4368D0F81CE00C6805
:10303000D1F808C040F48065C4F20106B54204D15D
:103040004D6923F4804343EA85132EF4E64646EAAD
:1030500004264360C66122F40052496842EA0C32F9
:103060000164026270BD000070B542F27141C0F6A9
:10307000000141F6DD3441F60D7542F2754242F22F
:10308000C55342F2C95CC0F60004C0F6000542F226
:103090000126C0F8801000F19401C0F60002C0F6CD
:1030A0000003C0F6000C41F6D93EC0F6000670C120
:1030B00042F2052141F64915C0F6000EC0F8842001
:1030C000C0F88830C0F88CC0C0F6000141F6D53297
:1030D00041F64D1341F65116C0F6000500F1A00C63
:1030E000C0F890E0C0F60002C0F60003C0F600068B
:1030F0008CE84E00C0F8B05070BD000080B500688C
:10310000826822F0770ED1E900C222F0070343EA79
:103110000E0343EA0C0E6FF0030303EB3213032B91
:10312000C0F808E023D8DFE803F002161D24BCF144
:10313000050F04BF012080BD026A036A23F001036A
:1031400003628369096923F0F00343EA0111816195
:103150000262002080BD8B680A69194600F012F8EF
:10316000002080BD8B680A69194600F071F80020C4
:1031700080BDD1E9022C0B696146FFF7A5FE002056
:1031800080BD0000D0F820C0036A23F00103036271
:10319000836923F0F00343EA02122CF00A03194377
:1031A000826101627047000010B5D0F820C041F282
:1031B000FF742CF0010CC0F820C0D0F818E0D0F853
:1031C00020C0C4F20004A0420DDC40F2FF74C4F23F
:1031D0000004A04215DCB0F1804F29D040F2004439
:1031E000C4F2000422E040F2FF34C4F20104A04221
:1031F00012DC41F60004C4F20004A04218D00024FE
:1032000012E040F60004C4F20004A04210D040F6E0
:103210000044C4F2000409E044F20004C4F20104D2
:10322000A04205D040F20044C4F20104A0420CD1F7
:103230002EF00304224363F307122CF00A0301F07B
:103240000A0119448261016210BD4EF00102F2E7E9
:10325000036A23F0100303628369D0F820C023F4CB
:10326000704343EA02322CF0A00343EA0111826169
:103270000162704710B5D0F820C012022CF0100C7B
:10328000C0F820C0D0F818C0D0F820E04FF2FF04FA
:10329000A2432CF4734C63F30F322EF0A00301F021
:1032A0000A0142EA0C0243EA01118261016210BD87
:1032B00080B5D0F820C063F307122CF4807CC0F8EE
:1032C00020C0D0F81CC0D0F820E02CF0F30C2EF475
:1032D000206301F00A0142EA0C0243EA0121C261C3
:1032E000016280BD10B5D0F820C012022CF4805CC1
:1032F000C0F820C0D0F81CC0D0F820E04FF2FF0486
:10330000A2432CF4734C63F30F322EF4204301F0EC
:103310000A0142EA0C0243EA0131C261016210BDB6
:1033200070B542F2A561C0F6000142F2D154C0F678
:10333000000442F2D95542F2D556416400F15801D9
:1033400042F2A16242F29D6342F2996C42F2DD5E6A
:10335000C0F60005C0F6000670C142F2CD51C0F6BD
:103360000002C0F60003C0F6000CC0F6000EC0F666
:1033700000018264C364C0F850C0C0F854E08166A4
:1033800070BD000010B504460068D4E902C223698C
:10339000016921F4405111430161626943EA0C0162
:1033A000E3691143C268194349F20C639A4311431C
:1033B000C1604169A26921F4407141F200431143A7
:1033C00040F48062C4F201039A42416102D1FEF7E7
:1033D000CBF801E0FEF7B6F8E16963681922B1F5B0
:1033E000004FA0FB02011CD15A00DB0FFCF73EFF8F
:1033F00048F21F51C5F2EB11A0FB01235A096FF0EF
:10340000630302FB0300322303EBC000A0FB0101B6
:103410004FF4F87000EA111000EB0210C1F34211F2
:103420001AE09A009B0FFCF721FF48F21F51C5F2EA
:10343000EB11A0FB01235A096FF0630302FB0300A9
:10344000322303EB0010A0FB0101F02000EA511031
:1034500000EB0210C1F3431122680843906010BDD5
:10346000FEE7000080B500F0D7FF00F0E3FF00F0BA
:10347000FBFF01F007F801F00DF801F013F880BD33
:1034800070B592B006AC20463021FCF7ACFF0025A9
:1034900043F640000595CDE90355CDE9015500956A
:1034A000C4F202000168022641F080510160006808
:1034B00000F080500090009847F200000095C4F2A0
:1034C0000000016841F480410160006800F4804020
:1034D000009000980120099010200A9008200E907A
:1034E000A820CDE90F060720119020460696CDE9C9
:1034F0000C65FEF781F80F20CDE901064FF4A050CE
:1035000004904FF48050059001A805210395FDF724
:1035100063FF12B070BD000010B5007F0138C1B26A
:1035200007291CD88B2222FA01F1C90708BF10BD58
:1035300041B20BA050F8210011A252F8214000F036
:1035400007FF014640F2E420C2F2000000780022AA
:10355000012818BF11462046002200F0C5FE10BD0C
:10356000C0070020CA070020C0070020D4070020A1
:10357000C0070020C0070020C0070020DE07002091
:10358000B400002040010020B4000020CC01002045
:10359000B4000020B4000020B40000205802002035
:1035A0002DE9F04F81B040F66808C2F200084046AD
:1035B00000F034FE40F2E87940F2B074C2F2000943
:1035C000C2F20004484684ED000B00F027FE40F2F2
:1035D0001C0BC2F2000BBBF8000084ED020B01F0E3
:1035E000E6FA054648460F4600F018FE53EC102B4D
:1035F0002846394601F064FC01F07CFA40F2C07ABA
:10360000C2F2000A0146504600F0A4FEBBF80000DA
:1036100001F0CDFA074640460C4600F0FFFD51ECA4
:10362000100B3A46234601F01BF801F063FA0AF149
:103630000A070146384600F08DFEBBF8000001F095
:10364000B6FA044648460E4600F0E8FD51EC100B71
:103650002246334601F004F801F04CFA0AF1140650
:103660000146304600F076FEBBF8000001F09FFAFC
:10367000044640460D4600F0D1FD53EC102B204689
:10368000294601F01DFC01F035FA0AF11E0401463D
:10369000204600F05FFE504600F05AFE40F28005E2
:1036A000C2F200052860384600F052FE68603046DD
:1036B00000F04EFEA860204600F04AFEE86001B02F
:1036C000BDE8F08FB0B540F6E80440F2A805C2F2BC
:1036D0000004C2F200056068696800EE100A01EE9D
:1036E000101A30EE410A10EE100A01F0D7FC41EC3E
:1036F000100B40F66800C2F2000000F059FDA0680F
:10370000A96800EE100A01EE101A30EE410A10EE20
:10371000100A01F0C3FC41EC100B40F2E870C2F259
:10372000000000F045FDFFF73BFF40F60040C4F20B
:1037300002004FF40041FDF7CBF9B0BD80B582B077
:10374000002043F630010190C4F202010A6842F4FD
:1037500000120A600A6802F400120192019A0090B5
:103760000868002240F4800008600868002100F426
:103770008000009000980D20FDF71AFE0D20FDF747
:1037800013FE0F2000210022FDF712FE0F20FDF78F
:103790000BFE102000210022FDF70AFE1020FDF78D
:1037A00003FE2F2000210022FDF702FE2F20FDF74F
:1037B000FBFD392000210022FDF7FAFD3920FDF73D
:1037C000F3FD02B080BD00002DE9F04F87B0002569
:1037D00043F630000695CDE90455CDE90255019533
:1037E000C4F202000168002441F004010160016894
:1037F000C4F2020401F004010191019901950168EC
:1038000004F5006741F0800101600168012201F0C8
:10381000800101910199019501684FF0010B41F080
:1038200001010160016801F0010101910199019517
:10383000016841F002010160016801F0020101919B
:1038400001990195016841F008010160016801F0EA
:103850000801019101990195016841F01001016091
:103860000068012100F01000019001983846FDF732
:1038700037F904F5406840464FF210010022FDF789
:103880002FF902AE38463146CDE902BBCDE90455E9
:10389000FDF752F8082002904FF002094FF0050A98
:1038A00038463146CDE903950595CDF818A0FDF7CA
:1038B00043F80020C1F21100CDE90305204631464E
:1038C000CDF808B0FDF738F81020CDE90209062040
:1038D000069020463146CDE90455FDF72DF8E0204D
:1038E000CDE9020920463146CDE90455CDF818A0AE
:1038F000FDF722F84FF48060CDE9020904F58060FD
:103900003146CDE90455CDF818A0FDF715F84FF272
:103910001000CDE9020B40463146CDE90455FDF7D4
:103920000BF84FF4A450CDE9020906200690384662
:103930003146CDE90455FCF7FFFF4FF40070CDE9A7
:103940000205204631460495FCF7F6FF4FF4E0509F
:10395000CDE902090A20069020463146CDE90455FA
:10396000FCF7EAFF2020CDE90205404631460495E8
:10397000FCF7E2FF0020C1F2110000F58030CDE934
:10398000030504F580503146CDF80890FCF7D4FFCC
:1039900007B0BDE8F08F000080B540F2C84045F2A6
:1039A0000041C2F20000C4F2000141F6802200236F
:1039B0004FF4804CC0F2060280E80E00C0E9033CE0
:1039C000C0E90533C0E90733FDF7D4F880BD000036
:1039D000B0B58AB040F21C5440F200400025C2F25B
:1039E0000004C4F200008B21C4E9000520460995BB
:1039F000CDE90755CDE90555CDE90355CDE901558B
:103A0000C4E902512561A561FEF708FB08A920461B
:103A1000CDE90855FDF79EFF6020CDE9010503952E
:103A2000059501AD204629460022FEF7ABFA204657
:103A300029460422FEF7A6FA204629460822FEF768
:103A4000A1FA204629460C22FEF79CFA2046FEF7F2
:103A500007FA0AB0B0BD000070B594B040F2D0547F
:103A600040F60040C2F20004C4F20000002646F610
:103A70005F510E2284E8430020461396CDE911667B
:103A8000CDE90F660D96CDE90B66CDE90966CDE966
:103A90000766CDE90566CDE90366CDE90166C4E9AF
:103AA0000326A661FDF7B2FF2046FEF731FA204655
:103AB000FEF7DEF804200F906020CDE910060FA974
:103AC00020461396FEF758FD0CA92046CDE90C665A
:103AD000FDF740FF092005ADCDE906062046294641
:103AE000002205960996FEF7E9F90120CDE90206C4
:103AF00001A92046042201960496FEF771F80F20D2
:103B00000690204629460822FEF7D8F914B070BD69
:103B1000B0B582B040F2846441F20040C2F20004C9
:103B2000C4F2000000254AF20F4140F2F31284E88B
:103B300023002046CDE90055E260A561FDF766FF50
:103B400069462046CDE90055FDF704FF02B0B0BD3F
:103B500080B540F2387041F20041C2F20000C4F278
:103B6000010100234FF0040C4FF4E13280E80E0015
:103B7000C0E90333C0E905C3C361FCF7BDFF80BDE5
:103B80002DE9F04703AF0E465031C9B20C29044667
:103B900006D306F14000C0B2082801D900202FE06A
:103BA000D4E9000584B099B2CDE9002196213246CE
:103BB00001230295FDF7B6FA04B008B100201FE01A
:103BC000D7F818806D4608F1080020F00700ADEB2B
:103BD000000608F10101B546D4E9000482B08BB2B9
:103BE000962132460094FDF791F802B008B100200A
:103BF00005E07869711C4246FCF7B0FB3078AD46B1
:103C0000A7F10C04A546BDE8F08700002DE9F04FB0
:103C100081B09B46154688460746FCF767FF064677
:103C2000FCF764FF801B4FF0000AA8424FF000042D
:103C300038BF012437D20DF103090EE00138B0FA84
:103C400080F0400908402ED1FCF750FF801BA842AD
:103C50004FF0000438BF012425D2B86810B9012004
:103C6000FCF756FEF868012802D0B8680028EBD1AE
:103C7000384605214A460123C7F80CA08DF803A059
:103C800000F05CF99DF8032012EA0803194618BFFA
:103C90000121BBF1000FD1D00128CFD1002B18BFDB
:103CA0008BF80020CAE704F0010001B0BDE8F08FF6
:103CB0002DE9F04186B00F460C9DA2F11401984603
:103CC0001029064628BF072A03D2642D21DD0024CF
:103CD00079E0A2F110001A2807D8012101FA00F0BA
:103CE0000321C0F280710842EFD1A2F13000172801
:103CF0004FF00000A2F14E0188BF01203A294FF099
:103D0000000188BF012108424FF000045BD1642DFF
:103D100059DC002F4FF0000455D08DF816200DF11E
:103D200015023046B22103238DF815408DF8175047
:103D300000940194FFF724FF002844D0380A8DF83E
:103D4000130002208DF8140000240DF111023046FA
:103D5000052101238DF812708DF8114000F0EEF866
:103D60000DF112023046B321032300940194FFF7B2
:103D700007FF40B30DF11103304611214FF47A7261
:103D800000F03CF8F0B19DF811000024C0071AD1F2
:103D90000DF10E023046822103238DF81040ADF85C
:103DA0000E4000F0CBF8BDF80E00B8420BD19DF8E4
:103DB0001000A8420BD1304641462A4600F00AF8CE
:103DC000044600E00824204606B0BDE8F081002447
:103DD000F9E7000080B584B000238DF80E308DF82F
:103DE0000F205FFA82FC00910DF10E02B421022334
:103DF000CDF804C0FFF7C4FE04B080BDB0B50446E2
:103E000085680020A0602046FFF700FFA560B0BDD8
:103E100010B584B00C4600219446ADF80C10029108
:103E200002AA66210623CDF800C000F06FF8BDF9A4
:103E300008109FED111A00EE101ABDF90A20B8EE15
:103E4000C00A20EE010A10EE101A00EE102ABDF989
:103E50000C30B8EEC00A20EE010A216010EE101AF4
:103E600000EE103AB8EEC00A20EE010A616010EED2
:103E7000101AA16004B010BD0000803DB0B582B042
:103E80000C461943012934D80546FA20FCF740FDB9
:103E900012208DF8060001AA284600210323AC60F9
:103EA000002400F04BF828B39DF806009DF805109B
:103EB0009DF80440C5E904010DF1070228460321DD
:103EC000012300F03BF8C0B1A4F143002969B0FA26
:103ED00080F211F0E0004FEA521410D0202804D1F3
:103EE0009DF807003F2818BF00240120FCF710FDB3
:103EF00000E00024204602B0B0BD0024FAE79DF89F
:103F00000700302818BF0024F4E7000080B582B015
:103F1000DDF810E09C4613460A46BEF1000F06D0BD
:103F20007146CDF800C0FFF7C3FE02B080BD114658
:103F30001A46634600F002F802B080BD80B584B036
:103F40008C461439102928BFBCF1070F11D2D0E9D3
:103F5000001E98B2CDE90020084696216246012352
:103F6000CDF808E0FCF7D6FFB0FA80F0400904B0C5
:103F700080BDACF1100EBEF11A0F08D8012101FA74
:103F80000EFE0321C0F280711EEA010FDFD1ACF1F9
:103F900030011829DBD3ACF14E013A29D7D90020E2
:103FA00004B080BDC0E90012704700002DE9F04167
:103FB0002DED048B90EC040B044690ED088B90EDF6
:103FC0000A9B51EC110B53EC102B00F079FF0246C9
:103FD0000B4651EC180B00F075FE94ED120B55ECEE
:103FE000197B80460E4653EC102B3846294600F0CC
:103FF00069FE02460B464046314600F031FB94ED27
:104000000C0B80460E4653EC102B3846294600F028
:1040100027FB02460B464046314600F0D5FB41ECFB
:10402000100B84ED120BBDEC048BBDE8F081000099
:1040300010B52DED088B044690ED028B90ED069B9C
:1040400090ED0CAB90ED10BB90F87A0084ED188BDE
:1040500080F0010000F0ABFD02460B4651EC190B5D
:1040600000F030FE02460B4651EC1A0B00F02AFE1F
:1040700002460B4651EC180B00F024FE02460B469C
:1040800051EC1B0B00F0ECFA41EC100B84ED100B23
:10409000BDEC088B10BD000010B590ED020B90ED4B
:1040A000041B044651EC110B53EC102B00F00AFEDC
:1040B00041EC100B84ED0E0B10BD000070B52DED22
:1040C000048B044690F8790094ED148B80B194ED44
:1040D0001A9B55EC186B53EC192B3046294601F00E
:1040E0002BF838B1B0EE498A0120F0EE698A0BE076
:1040F000002009E094ED1C8B304653EC182B294628
:1041000001F013F820B9012084ED168B84F87800B3
:10411000BDEC048B70BD000010B52DED028B044684
:10412000FFF7BAFF2046FFF783FF2046FFF73EFF69
:1041300094ED0E0B94ED101B94ED128B51EC100BC3
:1041400053EC112B00F08CFA53EC182B00F088FA8A
:1041500041EC100B84ED140BBDEC028B10BD000084
:10416000F0B581B09FED0E1B56EC107B54EC115B4B
:10417000384631462A46234600F0C9FF10B10120D7
:1041800001B0F0BD384631462A46234600F0D4FF40
:10419000002814BFFF20002001B0F0BD00BF00BF09
:1041A000000000000000000080ED0C0B70470000D4
:1041B00010B590ED021B044680ED001B80ED020B54
:1041C000FFF7AAFF2046FFF779FF204600F002F82C
:1041D00010BD0000B0B5044690F87900D0B194F855
:1041E0007B00B8B194ED140BFFF7BAFF94ED180BF8
:1041F0000546FFF7B5FF281AB0FA80F094F878105A
:10420000400984F87C00002918BF0121084084F887
:104210007A00B0BD002084F87A00B0BD90ED160B96
:104220007047000080ED080B7047000080ED040B24
:104230007047000048F200024FF600430021C4F22C
:104240005102C4F29F03C0E90011C0E90211C0E9A4
:104250001A12C0E91C13704700EB41000830704788
:10426000002000224A400909022800F10100F9D388
:1042700002F00F007047000010B508888A7842EA03
:104280004000002284B28A702146FFF7E9FF40EA2D
:10429000041080B210BD0000F0B581B00446408922
:1042A00018B10138608101B0F0BD268946B104F132
:1042B0000C004021FCF797F8701E208101B0F0BD82
:1042C0000D460026122700BF25FA06F000F0010176
:1042D000204600F01DF844F82700013F022F06F1A8
:1042E0000106F1D1DFE7000010B5044600888842DE
:1042F00003D1A078904208BF10BD21802146A27052
:10430000FFF7BAFF01462046FFF7C6FF10BD0000C9
:10431000406888407047000010B50446481C00F013
:1043200046FC9FED090B53EC102B00F0CBFC00F08A
:1043300011FC6FF003016060621804313C291061C8
:10434000FAD1204610BD00BF000000000000D83F99
:10435000C088704742888A4204DB82888A42C8BF8C
:1043600011460A46C2807047017040F2FF71C0F2E8
:104370003001C0F80210704710B52DED048B0446D3
:1043800008461146B0EE608AB0EE409AFFF764FF2F
:10439000206084ED019A204684ED028ABDEC048BF6
:1043A00010BD0000002848BF704700F01F01012227
:1043B00002FA01F14EF200124009CEF2000242F878
:1043C000201070474EF60C50CEF200000068C0F38B
:1043D000022070474EF6145300F00F02CEF2000395
:1043E00009011A4400F16043B0F1FF3FC8BF03F573
:1043F00064421170704700004EF60C51CEF200017D
:104400000A684FF6FF031A4060F30A2242F0806008
:1044100040F0FD7008607047B0B540F2C0750024F0
:10442000C2F2000528190021FFF79EFF0A34282C4C
:10443000F8D1B0BD10B540F2B404C2F20004204679
:104440008B21FFF769FF04F18C008B21FFF764FFDC
:1044500004F58C708B21FFF75FFF04F5D2708B2180
:10446000FFF75AFF10BD000080B540F2900040F207
:10447000C841C2F20000C2F200016422FFF792FDBF
:1044800080BD000080B540F66800C2F20000FFF772
:10449000D1FE80BD80B540F2E870C2F20000FFF7A7
:1044A000C9FE80BDB0B52DED048B40F2AC75C2F2F3
:1044B000000540F6F4049FED199A2968C2F2000441
:1044C000B7EE008A20460022B0EE480AF0EE490A14
:1044D000FFF752FF296804F10C000122B0EE480AF0
:1044E000F0EE490AFFF748FF9FED0D9A296804F1A5
:1044F00018000222B0EE480AF0EE490AFFF73CFF2E
:1045000029689FED080A04F124000422F0EE490A0C
:10451000FFF732FFBDEC048BB0BD00BF0080BBC411
:1045200000007AC46F12833AFCF7DAFEFEF7A8FFA8
:10453000FFF74AF9FFF702F9FFF74AFAFFF72CFAFB
:10454000FFF706FBFFF788FAFFF7E2FA40F21C5488
:10455000C2F2000443F21952C0F6000220461521AF
:10456000FDF78AFF40F2B405C2F2000505F10C0226
:10457000204600212023FDF747FE012605F1980281
:1045800020460421202384F83D60FDF73DFE05F51B
:10459000927220460821202384F83D60FDF734FE06
:1045A00005F5D87220460C21202384F83D60FDF7E4
:1045B0002BFE9FED298B40F66804C2F20004B0EE9A
:1045C000480A2046F0EE680AFFF7EEFD40F2E87573
:1045D000C2F20005B0EE480A2846F0EE680AFFF77E
:1045E000E3FD40F28466C2F2000643F2C562C0F603
:1045F000000230460E21FDF73FFF3046FDF796FAE8
:1046000040F29008C2F20008404600211F22002319
:10461000FFF734FC40F2000640F2A807C2F20006A1
:10462000C2F2000796ED000B2046FFF7FFFD96ED66
:10463000020B2046FFF7F6FD96ED000B2846FFF72C
:10464000F5FD96ED020B2846FFF7ECFD4046394696
:104650000022FFF7DDFBE5E7000000000000D03F8F
:1046600010B591EA030F48BF83F0004300F1308496
:10467000841A71EB030C05D2121943EB0C03001BD7
:1046800061EB0C014FEA1154A4EB135CDFF81CE161
:104690001EEA430F18BF9EEA445F00F0748021EACF
:1046A000045123EA0E0343F48013DCF1200E32D3CD
:1046B00022FA0CFE10EB0E0023FA0CFE41EB0E0169
:1046C000CCF1200E03FA0EFE10EB0E00CCF1200E02
:1046D00051F10001B1F5801F32D201EB045112FA01
:1046E0000EF2BDE8104058BF7047401C38BF5FEA6B
:1046F000420218BF7047002814BF20F0010041F1AA
:1047000000014FEA410313F5001F38BF7047A1F1C4
:10471000C04100F0CFBB012A43EB0302ACF1200CF7
:10472000DCF11F0E32BF4FF0000E23FA0CF310EB3A
:10473000030041EB0451B4EB115FD0D0A1EB045165
:1047400001F58011490801EB04515FEA30000ED3F6
:1047500050F1000038BF12FA0EFE08D1BDE810403B
:10476000C9E7401C38BF5FEA4202CAD1C3E7BDE8CF
:1047700010404FEA410313F5001F38BF7047A1F105
:10478000C04100F097BB9EEA445F08D011EA5E0F7B
:10479000BDE8104004BF01F0004100207047BDE8B3
:1047A000104070B500F038FB64FBBE3E0000E0FF37
:1047B000491058BFC1F140415B1058BFC3F140439D
:1047C0008B42EFF3008070472DE9C04130B4DFF831
:1047D000A4C23CEA111418BF3CEA131400F0ED80A7
:1047E0001CEA111481EA030544EAD57418BF1CEAD7
:1047F000131500F0C880A4EB050404F17F7404F5E0
:1048000000344FF0004545EAC12145EAC32341EA9F
:10481000505143EA52534FEAC0204FEAC222994214
:1048200008BF904200F09D804FEA13650FF24416D6
:10483000765D4FEA134506FB05F7C7F1807706FB67
:1048400007F74FEAD737A7FB03687642A7FB06CEE8
:10485000C8F5803838BFA8F1010807FB08E6A6FBB9
:10486000028C4FF0000EE6FB03CEDCF1000CCEF123
:10487000004E38BFAEF1010EA6FB0C584FF00007FA
:10488000E6FB0E87A1FB08C6A0FB07CE16EB0E06C3
:104890004FF0000545F10005E1FB076515F1E04E1D
:1048A0007EBFA4F580345FEA46066D4116F18007AD
:1048B00045F100054FEA172747EA05674FEA152536
:1048C0004FEA0666A6F1DE46B6F1805F20D938468B
:1048D00005EBC47124F0010C01EB0C11BCF1FE6F6F
:1048E00002D8F0BCBDE8008124425CBF01F5801E07
:1048F0009EEAC47F02D4F0BCBDE80081244200F1EE
:104900003980A1F1C041F0BCBDE8004100F0D2BA4D
:104910004FEAD02040EA41504FEAD1214FEAD2225B
:1049200042EA43524FEAD323A7FB028607FB036602
:1049300005FB02661EEA0E0F58BFA6EB0056B6EB4B
:1049400000564FEA520E4EEAC37E18EB0E0E56EB9F
:10495000530EBCD518EB02085E417F1C55F10005D3
:10496000B5E74FF480154FF000074FF000064FF009
:104970000008ACE701F1C04101F000414FF0000038
:10498000F0BCBDE800810CEA131511EA0C1F00D041
:104990000CE013EA0C1F00F026804FF0000081EAC3
:1049A000030101F00041F0BCBDE80081F0BCBDE8AE
:1049B000004181EA030100F07DBAF0BCBDE800418E
:1049C00070B500F029FA00BF097EFC3E00F007B880
:1049D0004FF0000081EA030101F00041704781EAD5
:1049E000030100F067BAF0BCBDE8004122494FF076
:1049F00000007047FFFDFBF9F7F5F4F2F0EEEDEB88
:104A0000E9E8E6E4E3E1E0DEDDDBDAD8D7D5D4D3CC
:104A1000D1D0CFCDCCCBCAC8C7C6C5C4C2C1C0BF18
:104A2000BEBDBCBBBAB9B8B7B6B5B4B3B2B1B0AF1E
:104A3000AEADACABAAA9A8A8A7A6A5A4A3A3A2A102
:104A4000A09F9F9E9D9C9C9B9A99999897979695BD
:104A500095949393929191908F8F8E8E8D8C8C8B59
:104A60008B8A8989888887878685858484838382E1
:104A7000828181800000FF070000F87F51EA030C6B
:104A800017D41CF5801F58BFBCF5801F00F10680AD
:104A9000994218BF704708BF9042704707D711F579
:104AA000801F58BF13F5801F19D49942704789425F
:104AB00070471CF5801F08D5BCF5801FF7D58B42C9
:104AC00018BF704708BF824270474FF4001C1CEBB0
:104AD000410F38BF1CEB430F01D28B42704770B5BA
:104AE00000F09AF9922449004FF000514FF08053A2
:104AF000FFF75EBE4FEA41034FEA5353A3F58063CD
:104B0000D3F11E03C8BFD3F1210C0CDD4FF00042DE
:104B100042EAC12242EA505232FA03FC8CEAE17CBA
:104B2000ACEBE1707047102BC4BF0020704703F559
:104B3000787CBCF1FF3F04D06FF0004282EA210094
:104B4000704770B500F068F94992248000207047E2
:104B5000F2E700004FEA1153A3F58063D3F11E037F
:104B6000A8BFD3F1200C08DB4FF0004242EAC1227B
:104B700052EA505232FA03F0704709420BD4102B1C
:104B8000C4BF0020704703F5787CBCF1FF3F05D01F
:104B90004FF0FF3070474FF00000704770B500F0E5
:104BA0003BF900BF4992248000207047F0E7B0FA3B
:104BB00080F310FA03F10AD0C3F11D0303F58063FB
:104BC0004FEA03524FEA415002EBD12170474FF0B8
:104BD0000000704751EA030C17D41CF5801F58BF22
:104BE000BCF5801F00F10680994218BF704708BFCE
:104BF0009042704707D711F5801F58BF13F5801FEB
:104C000019D499427047894270471CF5801F08D516
:104C1000BCF5801FF7D58B4218BF704708BF824292
:104C200070474FF4001C1CEB410F38BF1CEB430FC7
:104C300001D28B42704770B500F0EEF89224490023
:104C40004FF080514FF00053FFF7B2BD51EA030C13
:104C500017D41CF5801F58BFBCF5801F00F10680DB
:104C6000994218BF704708BF9042704707D711F5A7
:104C7000801F58BF13F5801F19D49942704789428D
:104C800070471CF5801F08D5BCF5801FF7D58B42F7
:104C900018BF704708BF824270474FF4001C1CEBDE
:104CA000410F38BF1CEB430F01D28B42704770B5E8
:104CB00000F0B2F8922449004FF000514FF08053B9
:104CC000FFF776BD70B5DFF848C11CEA111E1EBFA4
:104CD0001CEA13159EEA0C0F95EA0C0F00F06F808A
:104CE00081EA03044EEAD47EAE4421EA4C1123EA61
:104CF0004C1341F4801143F48013AEF17F7EA1FB8D
:104D0000024CA0FB0365361955EB0C05A1FB034CC7
:104D10004CF10003A0FB021C16EB0C06654153F19D
:104D20000003094218BF46F0010613F4007F0BD1BF
:104D30004FEA03314FEA053041EA155140EA165077
:104D400034036FF003020AE04FEAC3214FEAC520A3
:104D500041EA555140EA5650F4026FF0020202EB6C
:104D60002E4201EB025585EACE710AD05FEA440C6F
:104D700018BF24F0004450F1000041F1000120EA86
:104D8000D47040F2FE7C624500D270BDA84214BFD0
:104D90004FF080444FF04044002E08BF0024BEF185
:104DA000806FA8BFA1F1C041BDE8704080F2828051
:104DB00001F1C04101F000414FF0000070470CEAE2
:104DC00013159EEA0C0F18BF95EA0C0F06D081EA66
:104DD000030E4FF000000EF0004170BD00F01CF813
:104DE0008900013E00F007B800F009B84FEA430C13
:104DF0005FEA5C5C08D081EA030100F05BB84FEA2F
:104E0000410C5FEA5C5CF6D102494FF0000070474C
:104E10000000FF070000F87F0EF1020E2EF0030ED7
:104E20005EF8046B364205D4012A43EB030515F501
:104E3000001F12D8012841EB010C1CF5001F0CD8F3
:104E40000ED14FEAD17C0CEB4C0C0CF1020C15F599
:104E5000001F08BF4CEBD37C04E04FF0080C01E0CE
:104E60004FEAD37C0CEB4C0526FA05F606F0070654
:104E7000B6F1040C06D20EEB860CBDE870404CF087
:104E8000010C6047DFE80CF0090B02024FF0004113
:104E9000A1F500214FF0000070BD19461046012811
:104EA00051EB010418BFD4F5001484BF002001F0B9
:104EB000004170BD0808A0F500114FEA31017047AC
:104EC00010B591EA030F48BF83F000433FF5D0AB24
:104ED000841A71EB030C07D28CF0004C121943EBCF
:104EE0000C03001B61EB0C014FEA1154A4EB135CA3
:104EF000DFF8A4E11EEA430F18BF9EEA445F00F00A
:104F0000B48021EA045123EA6E035242C3EB6E03DC
:104F100038BF5B1EDCF1200E25D322FA0CFE10EB0D
:104F20000E0043FA0CFE41EB0E01CCF1200E03FA09
:104F30000EFE10EB0E00CCF1200E51F1000129D431
:104F400001EB045112FA0EF2BDE8104058BF704751
:104F5000401C1CBFB2F1004F704700280CBF491C19
:104F600020F00100704712EB020E43EB030218BF62
:104F70004FF0010E4EEA4202ACF1200CDCF11E0EA5
:104F800056D943FA0CFE10EB0E00CCF11E0E51F177
:104F9000FF31D5D50EF1010E12FA0EFE404141EB64
:104FA000010101EB445C5FEA5C5C10D901EB045148
:104FB00010EBDE7038BFBEF1004FBDE8104018BFE7
:104FC000704700280CBF491C20F00100704734D204
:104FD0004FEAD42C24F4006411F500111BD0B1FA6F
:104FE00081F20B3AA41AA41ED2F12003914030FAA8
:104FF00003F31943904001EBCC7101EB0451002CF9
:10500000BDE81040A8BF704701F1C04101F0004168
:105010004FF000007047B0FA80F310FA03F102D1AC
:10502000BDE810407047E41A173C4805C90AE2E79A
:1050300001EB0451BDE81040704749104FEA3000C1
:1050400001EB0451BDE8104002E04FF00001704751
:105050004A0008BF0042F8D0B2F5001F28BF7047D1
:1050600001F000414FF0000070479EEA445F07D016
:1050700011EA5E0FBDE8104004BF00210020704718
:10508000BDE8104070B5FFF7C7FE00BF40DFF63E39
:10509000104683F0004170470000E0FF43004FEAF4
:1050A000D30C4FEA3C0C43401FBF40070CF160514A
:1050B00013F0FE4F70471CF0006F03D10CF000415D
:1050C000002070470CF0004343EA507040EACC00E7
:1050D00010B500F038F800BF000000924FEA000160
:1050E000FFF7E8BE4FF00041A1F500214FF00000AE
:1050F000704710B5FFF7C2FC0CBF0120002010BDA7
:1051000010B5FFF7BBFC14BF0120002010BD10B587
:10511000FFF760FD8CBF0120002010BD10B5FFF728
:1051200059FD2CBF0120002010BD10B5FFF78EFDEA
:1051300094BF0120002010BD10B5FFF787FD34BFDC
:105140000120002010BD0EF1020E2EF0030E5EF8BD
:10515000044B244204D44FEA4102B2F17F4F11D8EC
:105160004FEA4003B3F17F4F0CD80ED14FEAD07C09
:105170000CEB4C0C0CF1020CB2F17F4F08BF4CEB66
:10518000D17C04E04FF0080C01E04FEAD17C0CEB3D
:105190004C0324FA03F404F00704B4F1040C06D21F
:1051A0000EEB840CBDE810404CF0010C6047DFE8CA
:1051B0000CF0070802024FF00040A0F5800010BD7F
:1051C0000846420018BFD2F1807288BF00F000404C
:1051D00010BDF1EE100A4FF6FF71C0F2C03120EAA7
:1051E000010040F04070E1EE100A7047000000003E
:1051F0000000000001020304060708090000000087
:1052000001020304285200080000002020000000D2
:10521000C40100084852000820000020080F0000C8
:10522000E001000841E2FFFF000000000000224012
:10523000000000000000E03F0024F4000100000036
:0852400010000000E001000075
:040000050800018965
:00000001FF
