:020000040800F2
:10000000500D00202D020008C91A0008C11A00086E
:10001000C51A0008490400088121000800000000FA
:10002000000000000000000000000000FD1A0008B1
:100030004905000800000000F91A0008311B0008FB
:10004000470200084702000847020008470200086C
:10005000470200084702000847020008470200085C
:10006000470200084702000847020008470200084C
:10007000470200084D040008470200085D0400081C
:100080006D04000847020008470200084702000804
:10009000470200084702000847020008470200081C
:1000A000470200084702000847020008470200080C
:1000B00047020008470200084702000847020008FC
:1000C00047020008470200084702000847020008EC
:1000D00047020008470200084702000847020008DC
:1000E00047020008470200084702000847020008CC
:1000F0004702000847020008470200087D04000884
:1001000047020008470200084702000847020008AB
:10011000470200084702000847020008470200089B
:10012000470200084702000847020008470200088B
:10013000470200084702000847020008470200087B
:10014000470200084702000847020008470200086B
:10015000470200084702000847020008470200085B
:10016000470200084702000847020008470200084B
:10017000470200084702000847020008000000008C
:10018000470200084702000800F002F800F03EF8BD
:100190000AA090E8000C82448344AAF10107DA45E2
:1001A00001D100F033F8AFF2090EBAE80F0013F0F6
:1001B000010F18BFFB1A43F001031847DC2A0000A7
:1001C000FC2A0000103A24BF78C878C1FAD8520738
:1001D00024BF30C830C144BF04680C6070470000C1
:1001E0000023002400250026103A28BF78C1FBD840
:1001F000520728BF30C148BF0B6070471FB502F0DF
:1002000031FD00F0D5F81FBD10B510BD00F0E2F8CB
:100210001146FFF7F3FF02F091FB00F000F903B481
:10022000FFF7F2FF03BC00F007F900000948804720
:1002300009480047FEE7FEE7FEE7FEE7FEE7FEE7C8
:10024000FEE7FEE7FEE7FEE704480549054A064BE0
:1002500070470000391B0008890100085007002082
:10026000500D0020500900205009002053EA020CD4
:1002700000F069802DE9F04B4FF00006002B1FBF06
:10028000B3FA83F503FA05F424FA05F65E4012BFCB
:100290001643B2FA82F502FA05F4C5F120051EBF35
:1002A00022FA05FC44EA0C04203556EA044C4FEAD5
:1002B000144418BF641C4FF000084FF0000990422E
:1002C00071EB030C39D3002919BFB1FA81F701FA98
:1002D00007F6B0FA80F700FA07F6C7F120071EBF4D
:1002E00020FA07FC46EA0C062037B6FBF4FCA7EB25
:1002F0000507103F07F01F0BCBF120062CFA06F67E
:100300000CFA0BFB44BFB3460026202FA4BF5E4669
:100310004FF0000B5BEA060C08BF4FF0010B19EB26
:100320000B0948EB0608ABFB027C06FB02CC0BFB7F
:1003300003CCC01B71EB0C01C1E70B4602464146E2
:100340004846BDE8F08B13B5084318BF4FF0FF30A7
:100350000146AFF30080BDE81C4070474FF000023B
:1003600000B5134694469646203922BFA0E80C50AB
:10037000A0E80C50B1F12001BFF4F7AF090728BF86
:10038000A0E80C5048BF0CC05DF804EB890028BF02
:1003900040F8042B08BF704748BF20F8022B11F02B
:1003A000804F18BF00F8012B7047704770477047A7
:1003B00070B5064C7C44064D7D4404E0204601683F
:1003C00008448047241DAC42F8D170BD00290000CC
:1003D00000290000754600F02BF8AE46050069467E
:1003E000534620F00700854618B020B5FFF72CFFD4
:1003F000BDE820404FF000064FF000074FF0000826
:100400004FF0000BAC46ACE8C009ACE8C009ACE862
:10041000C009ACE8C00921F007018D46704710B54E
:100420000446AFF300802046BDE81040FFF7F7BE5A
:10043000004870471800002001491820ABBEFEE7B5
:100440002600020070470000FEE7000080B540F281
:10045000E430C2F2000000F07BF880BD80B540F2CD
:10046000C420C2F2000000F073F880BD80B540F2F5
:100470002430C2F2000000F06BF880BD80B540F27D
:100480008430C2F2000000F063F880BDD0F800C0F4
:100490006FF00F024AF6AB2352FA8CF2CAF6AA2387
:1004A0000146A2FB0330000905A31B5C40F2FF30AC
:1004B0002CEA00005F2A88BF0430C1E916037047A8
:1004C00000061016000610168269816AB2F5005FF8
:1004D00006D06AB9022912D0012914D0D1B90EE090
:1004E000032917D8DFE801F0020B020F0120704743
:1004F00003293CBF012070471CBF00207047C06A21
:10050000C0F300607047C06AA0F1C070B0FA80F01C
:10051000400970470020704780B5D0F800C0D0F87F
:1005200008E0DCF80000BEF1400F20F48020CCF899
:1005300000000846CCF8043004BF10460A46CCF848
:100540000800CCF80C2080BD704700007047000008
:10055000F0B581B004460020009040F20000C2F2E5
:1005600000000268D4E9166048F2B5133768082124
:10057000C1F64E3381403942A2FB03250CD02268DC
:1005800013685B0708D5136823F004031360B16098
:10059000616D41F00101616501218140394208D05E
:1005A00022685269120604D5B160616D41F0020102
:1005B000616504218140394208D02268126892079F
:1005C00004D5B160616D41F0040161651021814085
:1005D000394215D020680268120711D5B16002684F
:1005E0000168520306D4C90506D4016821F0080148
:1005F000016001E0080342D4216C09B1204688471C
:10060000E16D202000FA01F23A4244D020680368EC
:10061000DB0640D5B26094F835300268052B1ED158
:1006200022F016020260426922F080024261226CCE
:100630000AB9A26C1AB1026822F0080202603F20D7
:100640008840B060002084F83400012084F8350030
:10065000216D002940D02046884701B0F0BD0168D7
:10066000520310D4C90512D4016821F010010160B1
:10067000002084F83400012084F8350007E0A16CE4
:100680000029BBD1BCE7080301D4616C00E0E16B39
:1006900009B120468847606DF0B1606DC00717D082
:1006A000052084F835002068A90A026822F00102BA
:1006B000026000BF009A01328A42009202D80268AA
:1006C000D207F7D1002084F83400012084F83500E7
:1006D000E16C09B12046884701B0F0BD2DE9F04139
:1006E000044600F065F9C4B10546002084F83400E2
:1006F000022084F835002068016821F001010160C2
:1007000026683068C0070BD000F052F9401B05285E
:10071000F6D903212022032042E00120BDE8F08128
:10072000306848F23F01CFF21001251D00EA010CAC
:100730002ECDD4E9050E41EA0C011143194329439A
:10074000D4E90778084340EA0E01606A3943042877
:1007500041EA080103D1D4E90B2311431943316065
:100760007169042821F0070141EA00050CD1D4E9A0
:100770000A1045EA010538B12046FFF7A5FE18B179
:100780000121402201200BE020467561FFF77EFE2B
:10079000E16D3F2202FA01F1816000220121002077
:1007A000626584F83510BDE8F0810000B0B50446FC
:1007B00090F83400012828D0012084F83400A56D79
:1007C00094F8350001281DD1022084F8350000205E
:1007D00060652046FFF7A0FEE26D3F23206803FA24
:1007E00002F2216CAA60026842F01602026019B19E
:1007F000016841F008010160016841F001010160F8
:100800000020B0BD002084F834000220B0BD0000FC
:100810002DE9F04F83B000F13E4202F1FF724FEA42
:10082000B22241F600470192C4F2020708220126D3
:1008300000254FF000084FF00009B84208BF07221A
:10084000009209E009F1010908F10408B9F1100F5B
:1008500005F1020500F0A3800C6806FA09FB14EA12
:100860000B0CEFD0D1F804A0BAF1120F17D806FA8A
:100870000AF414F0061F12D084680322CF6802FA2B
:1008800005FE24EA0E04AF40274387604768CAF399
:10089000001427EA0B0704FA09F4274347600322F0
:1008A000C76802FA05F48A68A743AA403A434AF0A7
:1008B00010076FEA040E122FC26010D16FF003020E
:1008C00002EA59020244176A08F01C060F230C6959
:1008D000B34027EA0303B4400126234313620268AE
:1008E0004B6802EA0E0203F00307AF403A43DB0015
:1008F0000260A7D5002243F644030292C4F2020329
:100900001A6843F6004442F480421A601A68C4F23E
:10091000010402F480420292029A29F003024FF687
:10092000084A2244CFF6FF7A52F80A3008F00C0742
:100930000F26BE4023EA060E019B009E072B38BF00
:100940001E4606FA07F747EA0E0342F80A30226805
:100950004B6842EA0C07DE0358BF22EA0C07276007
:1009600062689E0342EA0C0758BF22EA0C076760E0
:10097000A268DE0242EA0C0758BF22EA0C07A76011
:1009800043F60C47C4F201073A689B024FF0010698
:1009900042EA0C0358BF22EA0C033B6052E703B063
:1009A000BDE8F08F002A08BF09048161704700008C
:1009B00040F24870C2F200000068704770B5B0B3F2
:1009C000044690F83D0028B9002084F83C002046F9
:1009D00000F0BCF8242084F83D002068016821F074
:1009E00001010160016841F400410160016821F4E6
:1009F0000041016000F024FA48F28041C0F21E017B
:100A000040F60012666888424FF00001C0F23D02D5
:100A100048F2A16C4FF0000338BF01219042C0F2B0
:100A2000010C38BF0123664538BF0B460BB10120CE
:100A300070BD4DF68361C4F21B31A0FB0112216829
:100A4000930C4D68664525F03F0545EA92424A60A1
:100A50000A6A22F03F0C09D34FF496725A4344F6C7
:100A6000D353C1F26203A2FB03239B095A1C42EA3F
:100A70000C020A6248F2A063CA69C0F201039E42F6
:100A80004CF6FF7322EA030C0AD801387200B0FB5F
:100A9000F2F001306FF31F30042898BF04202BE0E0
:100AA000A368A0F1010E9BB119207043BEFBF0F0CA
:100AB0000422013062F31F30000512D09BB11920CF
:100AC0007043BEFBF0F00422013062F31F3011E0EE
:100AD00006EB4600BEFBF0F001306FF31F3000055F
:100AE000ECD1012008E006EB4600BEFBF0F001303F
:100AF0006FF31F3040F4004040EA0C00C861086802
:100B0000D4E9072320F0C000104318430860886828
:100B100048F2FF3204F10C0690434CCE18431043C8
:100B2000A5698860C86820F0FF0030432843C8608A
:100B3000086840F00100086000202021206484F84B
:100B40003D10206384F83E0070BD0000B0B586B053
:100B500000240594CDE9034445F200410068C4F245
:100B6000000188420294019401D006B0B0BD43F662
:100B700030050094C4F20205286840F002002860A5
:100B8000286800F00200009000984FF41070019067
:100B9000122002900120CDE903040420059001F504
:100BA000D83001A9FFF734FE0094286940F4001002
:100BB0002861286900F400100090009806B0B0BDCC
:100BC00040F2100040F24871C2F20000C2F200018F
:100BD00000780A68104408607047000080B543F64A
:100BE0000040C4F20200016841F400710160016834
:100BF00041F480610160016841F48071016003206B
:100C000000F064F8002000F005F800F02BF8002058
:100C100080BD0000B0B540F21002C2F2000240F206
:100C200000011278C2F200014FF47A730968B3FB35
:100C3000F2F20446B1FBF2F1084600F0E3FA0F2CA1
:100C40004FF001050CD858B94FF0FF302146002273
:100C5000002500F02BF840F21400C2F200000460FE
:100C60002846B0BD80B582B0002043F64001019017
:100C7000C4F202014A6842F480424A604A6802F4BF
:100C800080420192019A0090086840F0805008600C
:100C9000086800F0805000900098072000F016F8D7
:100CA00002B080BD80B501F0E7FD80BD70B514468F
:100CB0000D46064601F0F0FD2946224600F006FFEB
:100CC0000146304601F0F0FD70BD000080B501F036
:100CD000FDFD80BD2DE9F041002800F08B8043F63A
:100CE0000808C4F202080446D8F8F8030D4600F0DC
:100CF0000F00884207D288F8F853D8F8F80300F0BC
:100D00000F00A84276D12068810717D5410705D585
:100D1000D8F8001041F4E051C8F80010010705D5DB
:100D2000D8F8001041F46041C8F80010D8F800105D
:100D3000A26821F0F0011143C8F80010C0073FD1AC
:100D4000D8F8F80300F00F00A84207D988F8F85344
:100D5000D8F8F80300F00F00A8424BD120684107F3
:100D600007D5D8F80010E26821F4E0511143C8F823
:100D70000010000708D5D8F80000216920F4604071
:100D800040EAC100C8F8000000F06CF8D8F8001084
:100D900042F67E42C1F30311C0F60002515C40F2FC
:100DA000000220FA01F140F21400C2F200000068D3
:100DB000C2F200021160FFF72DFF0020BDE8F081B4
:100DC0006068811E022907D258F8081C89015CBF9F
:100DD0000120BDE8F08110E0012807D158F8081C77
:100DE00089035CBF0120BDE8F08106E058F8081CCB
:100DF000890702D40120BDE8F081D8F8001021F065
:100E000003010843C8F80000FFF7D2FD064641F28F
:100E1000883700BFD8F80000616800F00C00B0EB24
:100E2000810F8DD0FFF7C4FD801BB842F2D903209B
:100E3000BDE8F08140F20000C2F200000068704797
:100E400080B5FFF7F7FF43F60801C4F20201096815
:100E500042F68E42C1F38221C0F60002515CC840C6
:100E600080BD000010B543F60404C4F202046068BB
:100E700000F00C0142F200400829C0F2F40007D053
:100E8000042918BF10BD41F20020C0F27A0010BD45
:100E9000216801F03F02216823684902C3F38811E9
:100EA00005D4A1FB00010023FFF7E0F906E041F2C1
:100EB0000020C0F27A004843B0FBF2F02168022221
:100EC000C1F3014102EB4101B0FBF1F010BD0000A4
:100ED0002DE9F04182B0002800F0978004460078A8
:100EE00043F60006C007C4F2020641D0B06800F025
:100EF0000C00042805D13068800339D56068B8BB80
:100F000083E0B06800F00C00082802D1706840024D
:100F1000F1D46568B5F5803F06D03068B5F5A02FEF
:100F200006D140F480203060306840F4803005E025
:100F300020F480303060306820F480203060FFF78B
:100F400037FD002D054610D03068800310D4FFF720
:100F50002FFD401B6428F7D91AE100BFFFF728FDD9
:100F6000401B64284FF003004CD830688003F5D450
:100F7000207880071AD5B06810F00C0F09D0B0683F
:100F800000F00C00082840F084807068400200F1F6
:100F900080803068800702D5E068012835D130684C
:100FA000216920F0F80040EAC10030602078000795
:100FB0002FD42078400742D4A56915B3B06800F05B
:100FC0000C00082840F09880012D1ED07068E1695F
:100FD00000F480028A4218D1216A00F03F028A425E
:100FE00013D147F6C071626A014091420DD1A16AE6
:100FF00000F440328A4208D1E16A00F07060884211
:1010000003D1002002B0BDE8F081012002B0BDE8AC
:10101000F0816069002840F20000C4F247205AD0F5
:101020000121C0F8801EFFF7C3FC0546706F8007E2
:10103000BFD4FFF7BDFC401B0228F7D9A8E0306CF5
:101040004FF00008C0000CD4CDF80480306C4FF095
:10105000010840F080503064306C00F08050019006
:10106000019847F20007C4F200073868C00525D48C
:10107000386840F480703860FFF79AFC054600BF7E
:101080003868C0051AD4FFF793FC401B0228F7D933
:101090007EE0E068002851D00020C4F24720012102
:1010A0000160FFF785FC0546306880073FF577AFA4
:1010B000FFF77EFC401B0228F6D969E0A568012DE8
:1010C00005D0306F052D4DD140F004003067306FF2
:1010D00040F001004CE00021C0F8801EFFF768FCE2
:1010E000054600BF706F80077FF563AFFFF760FCB8
:1010F000401B0228F6D94BE00027C4F24727002006
:101100003866FFF755FC022D05460BD1306880018B
:1011100056D5FFF74DFC401B02284FF00300F5D9D0
:1011200070E700BF306880017FF56BAFFFF740FCD0
:10113000401B02284FF00300F4D963E70020C4F2FB
:10114000472000210160FFF733FC05463068800727
:101150007FF52CAFFFF72CFC401B02284FF003005B
:10116000F4D94FE720F001003067306F20F0040021
:101170003067FFF71DFC002D054641F2883713D07C
:10118000306F800713D4FFF713FC401BB842F7D928
:10119000032002B0BDE8F081FFF70AFC401BB84213
:1011A0004FF003003FF62EAF306F8007F4D4B8F154
:1011B000000F3FF401AF306C20F080503064FBE64C
:1011C00004F11C052FCD084340EA8210D9034FF6E5
:1011D000FF729143A1F5803140EA056008437060D9
:1011E00001203866FFF7E4FB044600BF3068800149
:1011F0003FF507AFFFF7DCFB001B02284FF00300B1
:10120000F4D9FFE680B500F07BFC80BD704700009C
:10121000704700007047000010B590F83C20012A8C
:101220004FF0020252D0012380F83C3080F83D207C
:101230000268D2F804E0D2F808C00C682EF07003FF
:10124000234341F2FF74C4F20004A24253600DDC58
:1012500040F2FF73C4F200039A4215DCB2F1804FF2
:1012600029D040F20043C4F2000322E040F2FF33F1
:10127000C4F201039A4212DC41F60003C4F20003F7
:101280009A4218D0002312E040F60003C4F2000393
:101290009A4210D040F60043C4F2000309E044F241
:1012A0000003C4F201039A4205D040F20043C4F2A5
:1012B00001039A4204D149682CF0800319439160DC
:1012C0000121002280F83D1080F83C20104610BD1E
:1012D000002804BF0120704710B5044690F83D0077
:1012E00078B9002084F83C00204600F0EFFD206C27
:1012F00020B941F21D30C0F600002064216C204668
:101300008847022084F83D002068211D00F022FC5F
:10131000012084F83D00002010BD000080B586B09B
:101320000021CDE90411CDE90211006841F200026B
:10133000C4F20002904201912ED040F60041C4F266
:101340000001884238D0B0F1804F33D1002043F6FD
:1013500040010090C4F202010A6842F001020A60F2
:101360000A6802F001020092009A009051F8102CD5
:1013700042F0010241F8102C51F8101C01F001015B
:101380000091009948F2040101910221CDE9021077
:1013900004900120059032E043F640000091C4F231
:1013A0000200016841F010010160006800F01000C7
:1013B0000090009806B080BD002043F640010090E8
:1013C000C4F202010A6842F008020A600A6802F0E8
:1013D00008020092009A009051F8102C42F001028D
:1013E00041F8102C51F8101C01F0010100910099F6
:1013F0000A2101910221CDE90210CDE9040100206A
:10140000C4F2020001A9FFF703FA06B080BD000094
:101410000068C16841F00101C160816801F0070105
:10142000062903D0016841F00101016000207047E6
:10143000704700007047000070470000B0B50446D8
:1014400090F83C0001284FF0020008BFB0BD0D46E7
:101450000121042A84F83C1084F83D000AD09AB98E
:101460002068D5E90012EB6800F0CEFD206850F846
:10147000181F15E02068D5E90012EB6800F02AFE7D
:10148000206850F8181F16E02068D5E9001CEB68AA
:10149000082A0AD1624600F03BFE206850F81C1F63
:1014A00021F00C010160A9680AE0624600F04AFEE2
:1014B000206850F81C1F21F440610160A9680902EE
:1014C000026811430160012084F83D00002084F887
:1014D0003C00B0BD002804BF0120704710B5044691
:1014E00090F83D0078B9002084F83C00204600F0D8
:1014F000EDFCA06C20B941F22150C0F60000A064C0
:10150000A16C20468847022084F83D002068211DF8
:1015100000F020FB012084F83D00002010BD0000F9
:101520007047000080B586B000220592CDE9032205
:1015300040F200410068C4F2000188420292019228
:1015400001D006B080BD43F630000092C4F2020024
:10155000036843F002030360006800F0020000909B
:101560000098332001900220CDE90202CDE9042049
:1015700001F5003001A9FFF74BF906B080BD00006E
:101580007047000070B5044690F83C0001284FF009
:10159000020008BF70BD0D464FEAB20101260329C3
:1015A00084F83C6084F83D0036D8DFE801F0020A98
:1015B00012222068294600F0C3FB206850F8181F4B
:1015C0000EE02068294600F0EDFB206850F8181F57
:1015D00016E02068294600F01BFC206850F81C1F0C
:1015E00041F008010160016821F0040101602969EE
:1015F0000FE02068294600F041FC206850F81C1FCD
:1016000041F400610160016821F480610160296991
:101610000902026811430160002084F83D6084F8EB
:101620003C0070BD002804BF0120704710B504467F
:1016300090F83D0078B9002084F83C00204600F086
:1016400045FCA06D20B941F27160C0F60000A065B4
:10165000A16D20468847022084F83D002068211DA6
:1016600000F078FA012084F83D00002010BD000051
:101670002DE9F04F81B00446006840F20041C4F209
:101680000001884202D001B0BDE8F08F43F640016E
:101690000026C4F202010096086840F2C42540F01A
:1016A00002000860086846F2700100F00200009035
:1016B000C4F202010098C2F200054FF020694027F1
:1016C0004FF48060C5E9001905F110014FF4805A0C
:1016D0004FF4804B4FF48072C5E9027681E8010C2B
:1016E0004FF440382846EA61C5E90886FEF7F6FF60
:1016F000002818BFFEF72AFF46F270006562AC634F
:10170000A563AC63C4F2020040F224351830C2F283
:101710000005C5E900094FF4806005F11001C5E935
:10172000027681E8010C4FF48070C5E9070828466D
:101730006E62FEF7D3FF002818BFFEF707FF46F2E0
:101740007000A562AC63C4F2020040F284354830F8
:10175000C2F200054FF020614FF04008002685E8F6
:10176000030105F10C004FF480694FF4805A4FF4E7
:10177000804B4FF4807280E8400E4FF4403728468B
:10178000EA61C5E90876FEF7A9FF002818BFFEF751
:10179000DDFE43F64000E562AC63C4F2020040F2B5
:1017A000E43500F52050C2F2000528604FF02060BB
:1017B000C5E9010805F10C0080E8400E4FF4807087
:1017C000C5E9070728466E62FEF788FF002818BFA4
:1017D000FEF7BCFE2563AC632562AC6301B0BDE8D7
:1017E000F08F00007047000070470000B0B504465D
:1017F00090F83D00022804BF0220B0BD94F83D00DF
:101800000D46012806D112B9002B40F08680022037
:1018100084F83D004FEAB500032800F28680DFE837
:1018200000F002224160606A41F69D41C0F600016D
:10183000C163606A41F6D941C0F600010164606A83
:1018400041F61551D4F800C0C0F60001C164606AC9
:101850000CF1340C11466246FEF7A8FF00285CD15B
:101860004FF400705DE0A06A41F69D41C0F60001B2
:10187000C163A06A41F6D941C0F600010164A06AC3
:1018800041F61551D4F800C0C0F60001C164A06A49
:101890000CF1380C11466246FEF788FFE8BB4FF4A6
:1018A00080603EE0E06A41F69D41C0F60001C16300
:1018B000E06A41F6D941C0F600010164E06A41F6F0
:1018C0001551D4F800C0C0F60001C164E06A0CF103
:1018D0003C0C11466246FEF769FFF0B94FF4006018
:1018E0001FE0206B41F69D41C0F60001C163206BF3
:1018F00041F6D941C0F600010164206B41F6155153
:10190000D4F800C0C0F60001C164206B0CF1400C9B
:1019100011466246FEF74AFF08B10120B0BD4FF400
:1019200080502168CA681043C86020682946012297
:1019300000F0A2F9206840F2004240F48061C4F255
:101940000102914203D1416C41F40041416481683C
:1019500001F00701062904BF0020B0BD016841F075
:10196000010101600020B0BD704700007047000019
:10197000002A04BF0120704790F83C30012B04BFBF
:1019800002207047012380F83C3090F83D30012B55
:1019900014D11A2900F23E80DFE801F0202224262B
:1019A000282A2C2E30323436383A0E3E40434649EF
:1019B0004C4F5255585B5E0082674FE090F83D30C7
:1019C0000BB101214BE00D294ED8DFE801F00709EA
:1019D0000B0D0F11131517191B1D1F2102643DE07C
:1019E00042643BE0826439E0C26437E0026535E07E
:1019F000426533E0826531E0C2652FE002662DE08A
:101A000042662BE0826629E0C26627E0026725E095
:101A1000426723E0012122E0C2671FE0C0F8802076
:101A20001CE0C0F8842019E0C0F8882016E0C0F857
:101A30008C2013E0C0F8902010E0C0F894200DE056
:101A4000C0F898200AE0C0F89C2007E0C0F8A02069
:101A500004E0C0F8A42001E0C0F8A8200021002282
:101A600080F83C20084670470121F8E7B0B50446ED
:101A700090F83C0001284FF0020008BFB0BD0125DE
:101A800084F83C5084F83D00204600F067FA0028B6
:101A90004FF0010009D12068C16821F04001C16008
:101AA000C16821F48041C1600020002184F83D50CC
:101AB00084F83C10B0BD0000704700007047000083
:101AC000FEE70000FEE700007047000000F007009E
:101AD00080F00703042B28BF04234FF0FF3C03389A
:101AE0000CFA03F338BF0020994381400CFA00F050
:101AF00022EA00000843704770470000704700006A
:101B0000B0B501380024B4EB106F1CBF0120B0BD8C
:101B10004EF21005CEF2000568604FF0FF300F2145
:101B200000F0C2FE0720AC6028602046B0BD000077
:101B300080B5FFF745F880BD4EF68850CEF2000024
:101B4000016841F4700101604FF0006140F8801CB1
:101B50007047000010B540F6FF3E0368C4F2000E67
:101B600040F2004C7045C4F2010C0FDCB0F1804F24
:101B700019D040F20042C4F20002904213D040F665
:101B80000002C4F2000290420DD010E040F6004284
:101B9000C4F20002904206D0604504D00022C4F294
:101BA0000102904203D14A6823F07003134341F6C7
:101BB000FF72C4F2000290420DDC70451FDCB0F1F0
:101BC000804F41D040F20042C4F2000290423BD02C
:101BD00040F6000221E043F6FF72C4F20102904297
:101BE00020DC42F20002C4F2000290422CD000221B
:101BF000C4F20102904227D0604525D028E040F68B
:101C00000042C4F2000290421ED041F60002C4F22B
:101C10000002904218D041F60042C4F20002904205
:101C200012D015E044F20002C4F2010290420BD03F
:101C300044F60002C4F20102904205D044F2004290
:101C4000C4F20102904203D1CA6823F440731343E3
:101C500023F080024B69D1F800E08C681A430260DF
:101C6000C46240F48062C0F828E0624504BF09699C
:101C700001630121416110BD80B501F01F014FF0EA
:101C8000010CD0F820E00CFA01F32EEA0303036202
:101C9000036A02FA01F11943016280BD10B5846B39
:101CA000012184F83D10626A82420DD0A16A81420E
:101CB00007D0E16A814206D0216B814205D108211B
:101CC00002E0022100E004212177D4F8941020469C
:101CD00088470020207710BD10B5846B012184F85F
:101CE0003D10626A82420DD0A16A814207D0E16A4A
:101CF000814206D0216B814205D1082102E00221F8
:101D000000E004212177D4F898102046884700206D
:101D1000207710BD80B5806B012180F83D10D0F890
:101D20009C10884780BD0000D0F808C011432CF4F7
:101D30007F4C41EA032141EA0C01816070470000B9
:101D4000B0B5026A22F001020262026AD0F804E031
:101D500083690C6823F073038D6843EA040C40F236
:101D6000004422F0020240F48063C4F20104A34262
:101D700042EA050205D1CD6822F00C0225F00405E7
:101D80002A43A34206D1D1E905542EF440732B43D4
:101D900043EA040EC0F804E0C0F818C04968416383
:101DA0000262B0BD70B5026A22F010020262026ADD
:101DB000D0F804E083690C6823F4E6438D6843EAB5
:101DC000042C40F2004422F0200240F48063C4F26C
:101DD0000104A34242EA051207D1CD686FF0400624
:101DE00022F0C00206EA05152A43A34207D1D1E931
:101DF00005652EF4406343EA860343EA850EC0F886
:101E000004E0C0F818C049688163026270BD000038
:101E100070B5026A22F480720262026AD0F804E0AD
:101E2000C3690C6823F073038D6843EA040C40F225
:101E3000004422F4007240F48063C4F20104A3421F
:101E400042EA052207D1CD6840F2FF462D0222F476
:101E50004062B5432A43A34207D1D1E905652EF478
:101E6000405343EA061343EA051EC0F804E0C0F8F5
:101E70001CC04968C163026270BD000010B5026AEF
:101E800040F2004422F480520262D0F820C042683E
:101E9000C369C4F2010423F4E64E40F48063A34214
:101EA0000B688C684EEA032E2CF4005343EA043C82
:101EB00004D14B6922F4804242EA83124260C0F8A6
:101EC0001CE049680164C0F820C010BD70B541F63F
:101ED0006911C0F6000141F66D1241F6B92341F6D1
:101EE000BD2C41F2354E41F2394441F28155C0F6E4
:101EF0000002C0F60003C0F6000CC0F6000EC0F6EB
:101F00000004C0F6000541F2E576816700F18C011E
:101F1000C0F60006C267C0F88030C0F884C0C0F8C0
:101F200088E070C141F2E97141F20D25C0F600016F
:101F300041F2314241F2112341F21526C0F600056B
:101F400000F1980CC0F60002C0F60003C0F60006CF
:101F50008CE84E00C0F8A85070BD000080B5006845
:101F6000826822F0770ED1E900C222F0070343EA2B
:101F70000E0343EA0C0E6FF0030303EB3213032B43
:101F8000C0F808E023D8DFE803F002161D24BCF1F6
:101F9000050F04BF012080BD026A036A23F001031C
:101FA00003628369096923F0F00343EA0111816147
:101FB0000262002080BD8B680A69194600F012F8A1
:101FC000002080BD8B680A69194600F071F8002076
:101FD00080BDD1E9022C0B696146FFF7A5FE002008
:101FE00080BD0000D0F820C0036A23F00103036223
:101FF000836923F0F00343EA02122CF00A03194329
:10200000826101627047000010B5D0F820C041F233
:10201000FF742CF0010CC0F820C0D0F818E0D0F804
:1020200020C0C4F20004A0420DDC40F2FF74C4F2F0
:102030000004A04215DCB0F1804F29D040F20044EA
:10204000C4F2000422E040F2FF34C4F20104A042D2
:1020500012DC41F60004C4F20004A04218D00024AF
:1020600012E040F60004C4F20004A04210D040F692
:102070000044C4F2000409E044F20004C4F2010484
:10208000A04205D040F20044C4F20104A0420CD1A9
:102090002EF00304224363F307122CF00A0301F02D
:1020A0000A0119448261016210BD4EF00102F2E79B
:1020B000036A23F0100303628369D0F820C023F47D
:1020C000704343EA02322CF0A00343EA011182611B
:1020D0000162704710B5D0F820C012022CF0100C2D
:1020E000C0F820C0D0F818C0D0F820E04FF2FF04AC
:1020F000A2432CF4734C63F30F322EF0A00301F0D3
:102100000A0142EA0C0243EA01118261016210BD38
:1021100080B5D0F820C063F307122CF4807CC0F89F
:1021200020C0D0F81CC0D0F820E02CF0F30C2EF426
:10213000206301F00A0142EA0C0243EA0121C26174
:10214000016280BD10B5D0F820C012022CF4805C72
:10215000C0F820C0D0F81CC0D0F820E04FF2FF0437
:10216000A2432CF4734C63F30F322EF4204301F09E
:102170000A0142EA0C0243EA0131C261016210BD68
:10218000FEE7000080B500F0B1FB00F0C9FB80BDA8
:1021900070B592B006AC20463021FEF7DFF800257E
:1021A00043F640000595CDE90355CDE9015500956D
:1021B000C4F202000168022641F08051016000680B
:1021C00000F080500090009847F200000095C4F2A3
:1021D0000000016841F4804101600068102100F4B2
:1021E0008040009000980A20069001200990CDE9D7
:1021F0000A100820CDE90C650E90A820CDE90F0645
:10220000072011902046FEF763FE0F20CDE901065E
:102210004FF4A05004904FF48050059001A8052180
:102220000395FEF757FD12B070BD000080B5007F2A
:102230000138C1B207291FD88B2222FA01F1C90740
:1022400008BF80BD40B20DA151F8201040F2080334
:102250000978C2F2000303EB410140F2C023C2F24D
:10226000000331F8021C1B780CA252F820005943DD
:1022700089B2002200F0CAFA80BD00BF040000202D
:1022800005000020040000200600002004000020BB
:10229000040000200400002007000020900000201F
:1022A0001C01002090000020A801002090000020C8
:1022B00090000020900000203402002070470000B1
:1022C00080B582B00020019043F63000C4F20200D5
:1022D0000168002241F4001101600068002100F44F
:1022E0000010019001980D20FEF7E0FC0D20FEF794
:1022F000D9FC0F2000210022FEF7D8FC0F20FEF7AA
:10230000D1FC102000210022FEF7D0FC1020FEF7A7
:10231000C9FC2F2000210022FEF7C8FC2F20FEF769
:10232000C1FC02B080BD00002DE9F04F89B000254E
:1023300043F630000895CDE90655CDE904550395DF
:10234000C4F20200016840F2000A41F0100101608D
:102350000168C4F2020A01F0100103910399039588
:1023600001680AF5805641F004010160016800220D
:1023700001F0040103910399039501684FF00809E6
:1023800041F080010160016801F08001039103992F
:102390000395016841F001010160016801F001014C
:1023A000039103990395016841F0020101600168FE
:1023B00001F00201039103990395016841F00801BE
:1023C00001600068082100F008000390039830467F
:1023D0000296FEF7E7FA0AF5006420460121012281
:1023E0004FF00108FEF7DEFA0AF540604FF21001E7
:1023F00000220190FEF7D6FA04AF30463946CDE907
:102400000498CDE90655FEF703FA20463946CDE992
:102410000488CDE90655FEF7FBF9CDF810904FF092
:10242000020B4FF0050920463946CDE905B5079561
:10243000CDF82090FEF7ECF90020C1F21100CDF8A4
:102440001080CDE9050550463946FEF7E1F9102028
:10245000CDE9040B0620CDE90655089050463946D3
:10246000FEF7D6F9E020CDE9040B50463946CDE918
:102470000655CDF82090FEF7CBF904200AF58066CA
:10248000CDE90405304639460695FEF7C1F94FF40B
:102490008060CDE9040B30463946CDE90655CDF8CC
:1024A0002090FEF7B5F9019E4FF21000CDE9040827
:1024B00030463946CDE90655FEF7AAF94FF4A45047
:1024C000CDE9040B0620CDE9065508902046394693
:1024D000FEF79EF94FF40070CDE9040550463946E9
:1024E0000695FEF795F94FF4E050CDE9040B0A206C
:1024F000CDE90655089050463946FEF789F9202067
:10250000CDE90405304639460695FEF781F90020ED
:10251000C1F2110000F58030CDF810B0CDE905050D
:1025200002983946FEF774F909B0BDE8F08F000053
:1025300080B540F2444045F20041C2F20000C4F2CE
:10254000000141F6802200234FF4804CC0F20602C5
:1025500080E80E00C0E9033CC0E90533C0E9073359
:10256000FEF72CFA80BD0000F0B58BB040F2984425
:102570000025C2F200044FF080404FF0FF31C4E963
:10258000000520460A95CDE90855CDE90655CDE967
:102590000455CDE90255CDE90055C4E90251256144
:1025A000A561FEF795FE2046FEF794FF04200690F5
:1025B0005020CDE9070506A920460A95FFF756FAEF
:1025C00004A92046CDE90455FEF726FE0126009514
:1025D000CDE9016503956D46204629460022FEF7A8
:1025E0002DFF02272046294604220197FEF726FFE9
:1025F0002046294608220196FEF720FF204629465C
:102600000C220197FEF71AFF0BB0F0BDB0B58AB0EF
:1026100040F2445440F200400025C2F20004C4F2EB
:1026200000008B21C4E9000520460995CDE9075536
:10263000CDE90555CDE90355CDE90155C4E9025170
:102640002561A561FEF7EEFF08A92046CDE90855F2
:10265000FEF7E2FD6020CDE901050395059501AD8A
:10266000204629460022FEF78DFF204629460422F7
:10267000FEF788FF204629460822FEF783FF204602
:1026800029460C22FEF77EFF2046FEF74BFF0AB0DC
:10269000B0BD0000F0B58BB040F2F05440F6004001
:1026A0000025C2F20004C4F200004FF0FF31C4E97B
:1026B000000520460A95CDE90855CDE90655CDE936
:1026C0000455CDE90255CDE90055C4E90251256113
:1026D000A561FEF7FDFD2046FEF7FCFE04200690F6
:1026E0006020CDE9070506A920460A95FFF7BEF947
:1026F00004A92046CDE90455FEF78EFD022600957B
:10270000CDE9016503956D46204629460022FEF776
:1027100095FE01272046294604220197FEF78EFEEA
:102720002046294608220196FEF788FE20462946C3
:102730000C220197FEF782FE0BB0F0BDB0B582B05F
:1027400040F29C6441F200000025C2F20004C4F291
:1027500000004FF6FF71C4E900052046CDE90055A1
:10276000C4E90251A561FEF7B3FD69462046CDE9F3
:102770000055FEF751FD02B0B0BD0000C0E90012E7
:1027800070470000002000224A400909022800F199
:102790000100F9D302F00F007047000010B508885F
:1027A0008A7842EA4000002284B28A702146FFF70C
:1027B000E9FF40EA041080B210BD0000F0B581B01E
:1027C0000446408918B10138608101B0F0BD268906
:1027D00046B104F10C004021FDF7C0FD701E2081C0
:1027E00001B0F0BD0D460026122700BF25FA06F005
:1027F00000F00101204600F01DF844F82700013FD9
:10280000022F06F10106F1D1DFE7000010B5044602
:102810000088884203D1A078904208BF10BD218073
:102820002146A270FFF7BAFF01462046FFF7C6FF18
:1028300010BD0000406888407047000000000000A4
:1028400010B50446481C00F0FCF89FED090B53EC52
:10285000102B00F009F900F0C7F86FF00301606079
:10286000621804313C291061FAD1204610BD00BF26
:10287000000000000000D83F002848BF704700F06B
:102880001F01012202FA01F14EF200124009CEF2BC
:10289000000242F8201070474EF60C50CEF20000B5
:1028A0000068C0F3022070474EF6145300F00F0288
:1028B000CEF2000309011A4400F16043B0F1FF3F7A
:1028C000C8BF03F564421170704700004EF60C510A
:1028D000CEF200010A684FF6FF031A4060F30A22A5
:1028E00042F0806040F0FD700860704710B540F223
:1028F0009004C2F2000420468B21FFF7A1FF04F1EF
:102900008C008B21FFF79CFF04F58C708B21FFF767
:1029100097FF04F5D2708B21FFF792FF10BD0000E6
:1029200080B540F2780040F24441C2F20000C2F2A9
:1029300000014FF47A72FFF721FF80BDFEF74EF9D8
:10294000FFF726FCFFF7F0FCFFF7BAFCFFF75EFE8F
:10295000FFF7A0FEFFF7ECFDFFF706FEFFF7EEFE28
:1029600040F24454C2F2000442F22D22C0F60002AA
:1029700020461521FEF7FCFF40F29005C2F200054B
:1029800005F10C02204600212023FEF72FFF01262F
:1029900005F1980220460421202384F83D60FEF7CB
:1029A00025FF05F5927220460821202384F83D601A
:1029B000FEF71CFF05F5D87220460C21202384F871
:1029C0003D60FEF713FF40F29C64C2F2000442F245
:1029D000BD22C0F6000220460E21FEF7C9FF2046A8
:1029E000FEF716FDFEE700004FEA1153A3F58063E2
:1029F000D3F11E03A8BFD3F1200C08DB4FF0004237
:102A000042EAC12252EA505232FA03F070470942B8
:102A10000BD4102BC4BF0020704703F5787CBCF1A9
:102A2000FF3F05D04FF0FF3070474FF00000704778
:102A300070B500F0C3F800BF4992248000207047B1
:102A4000F0E7B0FA80F310FA03F10AD0C3F11D03E6
:102A500003F580634FEA03524FEA415002EBD12164
:102A600070474FF00000704770B5DFF848C11CEAAE
:102A7000111E1EBF1CEA13159EEA0C0F95EA0C0FDF
:102A800000F06F8081EA03044EEAD47EAE4421EA6E
:102A90004C1123EA4C1341F4801143F48013AEF13E
:102AA0007F7EA1FB024CA0FB0365361955EB0C059C
:102AB000A1FB034C4CF10003A0FB021C16EB0C061F
:102AC000654153F10003094218BF46F0010613F4B3
:102AD000007F0BD14FEA03314FEA053041EA15512F
:102AE00040EA165034036FF003020AE04FEAC321B4
:102AF0004FEAC52041EA555140EA5650F4026FF0C2
:102B0000020202EB2E4201EB025585EACE710AD099
:102B10005FEA440C18BF24F0004450F1000041F17A
:102B2000000120EAD47040F2FE7C624500D270BD04
:102B3000A84214BF4FF080444FF04044002E08BF1D
:102B40000024BEF1806FA8BFA1F1C041BDE8704074
:102B500080F2828001F1C04101F000414FF000009D
:102B600070470CEA13159EEA0C0F18BF95EA0C0F7C
:102B700006D081EA030E4FF000000EF0004170BD58
:102B800000F01CF88900013E00F007B800F009B819
:102B90004FEA430C5FEA5C5C08D081EA030100F075
:102BA0005BB84FEA410C5FEA5C5CF6D102494FF03A
:102BB000000070470000FF070000F87F0EF1020ED2
:102BC0002EF0030E5EF8046B364205D4012A43EB67
:102BD000030515F5001F12D8012841EB010C1CF567
:102BE000001F0CD80ED14FEAD17C0CEB4C0C0CF131
:102BF000020C15F5001F08BF4CEBD37C04E04FF02E
:102C0000080C01E04FEAD37C0CEB4C0526FA05F6E4
:102C100006F00706B6F1040C06D20EEB860CBDE8F2
:102C200070404CF0010C6047DFE80CF0090B020229
:102C30004FF00041A1F500214FF0000070BD194692
:102C40001046012851EB010418BFD4F5001484BFCD
:102C5000002001F0004170BD0808A0F500114FEA06
:102C600031017047F1EE100A4FF6FF71C0F2C0312A
:102C700020EA010040F04070E1EE100A70470000C9
:102C8000000000000000010203040607080900001C
:102C90000000010203040000C02C00080000002016
:102CA00018000000C4010008D82C000818000020FB
:102CB000380D0000E0010008CDF4FFFF0000000027
:102CC0000024F400010203044600460046004600CA
:082CD0000100000010000000EB
:040000050800018965
:00000001FF
