:020000040800F2
:10000000B80E002035020008852600087D2600086D
:10001000812600087D0600088130000800000000ED
:10002000000000000000000000000000B9260008E9
:100030008D07000800000000B5260008ED26000826
:100040004F0200084F0200084F0200084F0200084C
:100050004F0200084F0200084F0200084F0200083C
:100060004F0200084F0200084F0200084F0200082C
:100070004F020008810600084F02000891060008A0
:10008000A10600084F0200084F0200084F020008B6
:100090004F0200084F0200084F0200084F020008FC
:1000A0004F0200084F0200084F0200084F020008EC
:1000B0004F0200084F0200084F0200084F020008DC
:1000C0004F0200084F0200084F0200084F020008CC
:1000D0004F0200084F0200084F0200084F020008BC
:1000E0004F0200084F0200084F0200084F020008AC
:1000F0004F0200084F0200084F020008B106000836
:100100004F0200084F020008112700084F020008A4
:100110004F0200084F0200084F0200082127000884
:100120004F020008C10600084F0200084F020008F5
:100130004F0200084F0200084F0200084F0200085B
:100140004F0200084F0200084F0200084F0200084B
:100150004F0200084F0200084F0200084F0200083B
:100160004F0200084F0200084F0200084F0200082B
:100170004F0200084F0200084F0200080000000074
:100180004F0200084F02000800F002F800F042F8A9
:100190000AA090E8000C82448344AAF10107DA45E2
:1001A00001D100F037F8AFF2090EBAE80F0013F0F2
:1001B000010F18BFFB1A43F0010318475448000011
:1001C00074480000103A24BF78C878C1FAD85207A2
:1001D00024BF30C830C144BF04680C6070470000C1
:1001E0000023002400250026103A28BF78C1FBD840
:1001F000520728BF30C148BF0B6070471FB504F0DD
:10020000EEFB9DE8030000F061F900F0D5F81FBD9A
:1002100010B510BD00F095F91146FFF7EFFF03F0A0
:10022000BDFD00F0CDF903B4FFF7F2FF03BC00F011
:100230002BF900000948804709480047FEE7FEE720
:10024000FEE7FEE7FEE7FEE7FEE7FEE7FEE7FEE786
:1002500004480549054A064B70470000F52600088A
:1002600089010008B8080020B80E0020B80A002054
:10027000B80A002053EA020C00F069802DE9F04B27
:100280004FF00006002B1FBFB3FA83F503FA05F405
:1002900024FA05F65E4012BF1643B2FA82F502FA5E
:1002A00005F4C5F120051EBF22FA05FC44EA0C0442
:1002B000203556EA044C4FEA144418BF641C4FF032
:1002C00000084FF00009904271EB030C39D300296C
:1002D00019BFB1FA81F701FA07F6B0FA80F700FA10
:1002E00007F6C7F120071EBF20FA07FC46EA0C06F6
:1002F0002037B6FBF4FCA7EB0507103F07F01F0BF8
:10030000CBF120062CFA06F60CFA0BFB44BFB346E1
:100310000026202FA4BF5E464FF0000B5BEA060CC0
:1003200008BF4FF0010B19EB0B0948EB0608ABFBBC
:10033000027C06FB02CC0BFB03CCC01B71EB0C0157
:10034000C1E70B46024641464846BDE8F08B13B56F
:10035000084318BF4FF0FF300146AFF30080BDE8FF
:100360001C4070474FF0000200B513469446964675
:10037000203922BFA0E80C50A0E80C50B1F12001B8
:10038000BFF4F7AF090728BFA0E80C5048BF0CC066
:100390005DF804EB890028BF40F8042B08BF7047C4
:1003A00048BF20F8022B11F0804F18BF00F8012B36
:1003B000704770477047704770B5064C7C44064DD7
:1003C0007D4404E02046016808448047241DAC4277
:1003D000F8D170BD704600007046000070B506464A
:1003E00000F058F8056806F10B0020F00704B4424D
:1003F0009CBF002070BD2B466A68BAB11068A0424D
:1004000010D304F1080188423CBF5068586007D3FC
:100410005168101941601168091B0160586014602F
:10042000101D70BD13465268002AE7D121462846A8
:1004300000F038F80028DED170BD70B50446051F05
:1004400000F028F80068002C14BF446870BD002C30
:1004500018BFAC423CBF20466468F8D301680A1854
:10046000AA4218BF456003D12A68054611440160BD
:1004700028684119A1421CBF6C6070BD6168696049
:1004800021680844286070BD01491820ABBEFEE712
:100490002600020000487047200000207047704787
:1004A0007047704738B504460A4600206946AFF3E6
:1004B0000080002808BF38BD02460099204600F0A1
:1004C00065F8012038BD012000F088B8F8B5AFF319
:1004D0000080054600200C46102000BF0646A819E3
:1004E000A0420DD9324669460020AFF300800700D4
:1004F00008BF00F073F80098A04218BF0546C41961
:10050000FFF7C8FF05600746F01D20F007004619F9
:10051000284600F00AF8B44208BFF8BDA21B3146D5
:100520003868BDE8F84000F031B800210160C0E94A
:1005300001107047102070470048704718000020D5
:1005400070477546FFF7F8FFAE460500694653460B
:1005500020F00700854618B020B5FFF779FEBDE80A
:1005600020404FF000064FF000074FF000084FF01A
:10057000000BAC46ACE8C009ACE8C009ACE8C00967
:10058000ACE8C00921F007018D467047034640687A
:100590008C46002818BF88423CBF03464068F8D309
:1005A00018681844884207D00CF1030020F00700B7
:1005B000001D411A521A0146081D0A60FFF73DBF8F
:1005C00010B50446AFF300802046BDE81040FFF7A9
:1005D0002ABE002801D0FFF757BF704710B500F0C2
:1005E0001DF8BDE81040FFF7F4BF70B505460C4696
:1005F0000A2000E06D1C00F039F835B12878002899
:10060000F8D102E0641C00F031F814B12078002821
:10061000F8D1BDE870400A2000F028B810B50128D4
:1006200005D0002103A0FFF7E0FF012010BD09A1C4
:10063000F8E7000053494752544D454D3A204F7555
:1006400074206F662068656170206D656D6F7279CA
:10065000000000003A2048656170206D656D6F7282
:100660007920636F727275707465640008B56946AD
:100670008DF800000320ABBE08BD0000FEE70000BF
:1006800080B540F2F430C2F2000000F0C9F880BD3D
:1006900080B540F2D420C2F2000000F0C1F880BD65
:1006A00080B540F23430C2F2000000F0B9F880BDED
:1006B00080B540F29430C2F2000000F0B1F880BD85
:1006C00080B540F25440C2F2000000F0A9F880BDAD
:1006D000D0F800C06FF00F024AF6AB2352FA8CF24A
:1006E000CAF6AA230146A2FB0330000905A31B5C3E
:1006F00040F2FF302CEA00005F2A88BF0430C1E9D5
:100700001603704700061016000610168269816AEB
:10071000B2F5005F06D06AB9022912D0012914D0BF
:10072000D1B90EE0032917D8DFE801F0020B020F60
:100730000120704703293CBF012070471CBF0020E7
:100740007047C06AC0F300607047C06AA0F1C07013
:10075000B0FA80F0400970470020704780B5D0F8AB
:1007600000C0D0F808E0DCF80000BEF1400F20F433
:100770008020CCF800000846CCF8043004BF1046B6
:100780000A46CCF80800CCF80C2080BD7047000069
:100790007047000070B5866D044600F07BFA94F84F
:1007A0003510022928D105462068216C026822F004
:1007B00016020260426922F08002426109B9A16C0E
:1007C00019B1016821F008010160016821F00101FF
:1007D000016000BF20680068C00714D000F05AFA1A
:1007E000401B0628F6D320206065002084F83400E2
:1007F000032084F8350070BD80206065002084F8F7
:100800003400012070BDE06D3F2101FA00F0B060BE
:100810000020012184F8340084F8351070BD0000F8
:10082000F0B581B004460020009040F20000C2F212
:1008300000000268D4E9166048F2B5133768082151
:10084000C1F64E3381403942A2FB03250CD0226809
:1008500013685B0708D5136823F004031360B160C5
:10086000616D41F00101616501218140394208D08B
:1008700022685269120604D5B160616D41F002012F
:10088000616504218140394208D0226812689207CC
:1008900004D5B160616D41F00401616510218140B2
:1008A000394215D020680268120711D5B16002687C
:1008B0000168520306D4C90506D4016821F0080175
:1008C000016001E0080342D4216C09B12046884749
:1008D000E16D202000FA01F23A4244D0206803681A
:1008E000DB0640D5B26094F835300268052B1ED186
:1008F00022F016020260426922F080024261226CFC
:100900000AB9A26C1AB1026822F0080202603F2004
:100910008840B060002084F83400012084F835005D
:10092000216D002940D02046884701B0F0BD016804
:10093000520310D4C90512D4016821F010010160DE
:10094000002084F83400012084F8350007E0A16C11
:100950000029BBD1BCE7080301D4616C00E0E16B66
:1009600009B120468847606DF0B1606DC00717D0AF
:10097000052084F835002068A90A026822F00102E7
:10098000026000BF009A01328A42009202D80268D7
:10099000D207F7D1002084F83400012084F8350014
:1009A000E16C09B12046884701B0F0BD2DE9F04166
:1009B000044600F06FF9C4B10546002084F8340005
:1009C000022084F835002068016821F001010160EF
:1009D00026683068C0070BD000F05CF9401B052882
:1009E000F6D903212022032042E00120BDE8F08156
:1009F000306848F23F01CFF21001251D00EA010CDA
:100A00002ECDD4E9050E41EA0C01114319432943C7
:100A1000D4E90778084340EA0E01606A39430428A4
:100A200041EA080103D1D4E90B2311431943316092
:100A30007169042821F0070141EA00050CD1D4E9CD
:100A40000A1045EA010538B12046FFF75FFE18B1EC
:100A50000121402201200BE020467561FFF738FE9E
:100A6000E16D3F2202FA01F18160002201210020A4
:100A7000626584F83510BDE8F0810000B0B5044629
:100A800090F83400012828D0012084F83400A56DA6
:100A900094F8350001281DD1022084F8350000208B
:100AA00060652046FFF75AFEE26D3F23206803FA97
:100AB00002F2216CAA60026842F01602026019B1CB
:100AC000016841F008010160016841F00101016025
:100AD0000020B0BD002084F834000220B0BD00002A
:100AE0002DE9F04F83B000F13E4202F1FF724FEA70
:100AF000B22241F600470192C4F2020708224FF0E9
:100B0000010E00254FF0000A4FF00008B84208BF60
:100B1000072200920AE000BF08F101080AF1040A66
:100B2000B8F1100F05F1020500F0A2800C680EFA72
:100B300008FB14EA0B09EFD04C6804F0030CACF18D
:100B4000010EBEF1010F12D882680323CE6803FAAA
:100B500005F7BA4306FA05F73A4382604268C4F3E0
:100B6000001722EA0B0207FA08F73A434260BCF189
:100B7000030F1CD0C26803238E6803FA05F7BA433B
:100B800006FA05F73A43BCF1020FC2600FD16FF0CD
:100B9000030202EA580202440AF01C060F23176AF5
:100BA00003FA06F40B69A743B3403B4313620268A0
:100BB00003234F68AB409A4307F00303AB401A434B
:100BC000FB004FF0010E0260A6D5002243F644035D
:100BD0000292C4F202031A6843F6004442F48042CF
:100BE0001A601A68C4F2010402F480420292029A66
:100BF00028F003024FF6084B2244CFF6FF7B52F851
:100C00000B300AF00C070F26BE4023EA060C019BAE
:100C1000009E072B38BF1E4606FA07F747EA0C036B
:100C200042F80B3022684B6842EA0907DE0358BFDE
:100C300022EA0907276062689E0342EA090758BF53
:100C400022EA09076760A268DE0242EA090758BF84
:100C500022EA0907A76043F60C47C4F201073A6885
:100C60009B0242EA090358BF22EA09033B6053E7AB
:100C700003B0BDE8F08F0000426902EA010391432E
:100C800041EA034181617047002A08BF090481617C
:100C90007047000040F6B000C2F2000000687047E4
:100CA000002804BF0120704710B5044690F83D00AD
:100CB00078B9002084F83C00204602F007F9E06E85
:100CC00020B942F2DD40C0F60000E066E16E204649
:100CD0008847242084F83D002068C16821F4005131
:100CE000C160204602F024F92068016921F4904196
:100CF0000161416921F022014161416941F008012E
:100D00004161C16841F40051C1600020202120648C
:100D100084F83D1084F83E1010BD000070B5B0B3EB
:100D2000044690F83D0028B9002084F83C00204695
:100D300000F0BCF8242084F83D002068016821F010
:100D400001010160016841F400410160016821F482
:100D50000041016000F024FA48F28041C0F21E0117
:100D600040F60012666888424FF00001C0F23D0272
:100D700048F2A16C4FF0000338BF01219042C0F24D
:100D8000010C38BF0123664538BF0B460BB101206B
:100D900070BD4DF68361C4F21B31A0FB01122168C6
:100DA000930C4D68664525F03F0545EA92424A603E
:100DB0000A6A22F03F0C09D34FF496725A4344F664
:100DC000D353C1F26203A2FB03239B095A1C42EADC
:100DD0000C020A6248F2A063CA69C0F201039E4293
:100DE0004CF6FF7322EA030C0AD801387200B0FBFC
:100DF000F2F001306FF31F30042898BF04202BE07D
:100E0000A368A0F1010E9BB119207043BEFBF0F066
:100E10000422013062F31F30000512D09BB119206B
:100E20007043BEFBF0F00422013062F31F3011E08A
:100E300006EB4600BEFBF0F001306FF31F300005FB
:100E4000ECD1012008E006EB4600BEFBF0F00130DB
:100E50006FF31F3040F4004040EA0C00C86108689E
:100E6000D4E9072320F0C0001043184308608868C5
:100E700048F2FF3204F10C0690434CCE1843104365
:100E8000A5698860C86820F0FF0030432843C86027
:100E9000086840F00100086000202021206484F8E8
:100EA0003D10206384F83E0070BD0000B0B586B0F0
:100EB00000240594CDE9034445F200410068C4F2E2
:100EC000000188420294019401D006B0B0BD43F6FF
:100ED00030050094C4F20205286840F00200286042
:100EE000286800F00200009000984FF41070019004
:100EF000122002900120CDE903040420059001F5A1
:100F0000D83001A9FFF7ECFD0094286940F40010E7
:100F10002861286900F400100090009806B0B0BD68
:100F200040F2120040F6B001C2F20000C2F200012D
:100F300000780A68104408607047000080B543F6E6
:100F40000040C4F20200016841F4007101600168D0
:100F500041F480610160016841F480710160032007
:100F600000F064F8002000F005F800F02BF80020F5
:100F700080BD0000B0B540F21202C2F2000240F2A1
:100F800000011278C2F200014FF47A730968B3FBD2
:100F9000F2F20446B1FBF2F1084600F0FDFA0F2C24
:100FA0004FF001050CD858B94FF0FF302146002210
:100FB000002500F02BF840F21400C2F2000004609B
:100FC0002846B0BD80B582B0002043F640010190B4
:100FD000C4F202014A6842F480424A604A6802F45C
:100FE00080420192019A0090086840F080500860A9
:100FF000086800F0805000900098072000F016F874
:1010000002B080BD80B502F057FE80BD70B51446B9
:101010000D46064602F060FE2946224601F034FBEA
:101020000146304602F060FE70BD000080B502F05F
:101030006DFE80BD2DE9F041002800F08B8043F665
:101040000808C4F202080446D8F8F8030D4600F078
:101050000700884207D288F8F853D8F8F80300F060
:101060000700A84276D12068810717D5410705D52A
:10107000D8F8001041F4E051C8F80010010705D578
:10108000D8F8001041F46041C8F80010D8F80010FA
:10109000A26821F0F0011143C8F80010C0073FD149
:1010A000D8F8F80300F00700A84207D988F8F853E9
:1010B000D8F8F80300F00700A8424BD12068410798
:1010C00007D5D8F80010E26821F4E0511143C8F8C0
:1010D0000010000708D5D8F80000216920F460400E
:1010E00040EAC100C8F8000000F07EF8D8F800100F
:1010F00044F6F812C1F30311C0F60002515C40F24D
:10110000000220FA01F140F21400C2F2000000686F
:10111000C2F200021160FFF72DFF0020BDE8F08150
:101120006068811E022907D258F8081C89015CBF3B
:101130000120BDE8F08110E0012807D158F8081C13
:1011400089035CBF0120BDE8F08106E058F8081C67
:10115000890702D40120BDE8F081D8F8001021F001
:1011600003010843C8F80000FFF794FD064641F26A
:10117000883700BFD8F80000616800F00C00B0EBC1
:10118000810F8DD0FFF786FD801BB842F2D9032076
:10119000BDE8F08140F20000C2F200000068704734
:1011A00080B5FFF7F7FF43F60801C4F202010968B2
:1011B00044F60822C1F38221C0F60002515CC84007
:1011C00080BD000080B5FFF7E5FF43F60801C4F2DB
:1011D0000201096844F60822C1F34231C0F6000258
:1011E000515CC84080BD000010B543F60404C4F251
:1011F0000204606800F00C0142F200400829C0F2CD
:10120000F40007D0042918BF10BD41F20020C0F23D
:101210007A0010BD216801F03F022168236849026D
:10122000C3F3881105D4A1FB00010023FFF722F8C6
:1012300006E041F20020C0F27A004843B0FBF2F031
:1012400021680222C1F3014102EB4101B0FBF1F040
:1012500010BD00002DE9F04182B0002800F0A1800F
:101260000446007843F60006C007C4F2020643D0E5
:10127000B06800F00C00042805D1306880033BD52D
:101280006068C8BB8DE0B06800F00C00082802D18F
:1012900070684002F1D46568B5F5A02F0AD0B5F5A5
:1012A000803F0BD0306820F480303060306820F40C
:1012B000802006E0306840F480203060306840F4E0
:1012C00080303060FFF7E6FC002D054611D000BFEE
:1012D0003068800310D4FFF7DDFC401B6428F7D989
:1012E00020E100BFFFF7D6FC401B64284FF003004D
:1012F00054D830688003F5D4207880071AD5B068B8
:1013000010F00C0F09D0B06800F00C00082840F075
:1013100088807068400200F184803068800702D5C0
:10132000E06801283DD13068216920F0F80040EAEA
:10133000C10030602078000737D4207840074AD4B5
:10134000A56955B3B06800F00C00082840F09C80F7
:10135000012D26D07068E16900F480028A4220D114
:10136000216A00F03F028A421BD147F6C071626ACF
:101370000140B1EB821F14D1A16A4FF6FF73C9037C
:10138000994300F44032A1F580318A4209D1E16AE3
:1013900000F07060B0EB016F03D1002002B0BDE837
:1013A000F081012002B0BDE8F0816069002840F2C0
:1013B0000000C4F2472056D00121C0F8801EFFF77C
:1013C00069FC0546706F8007B7D4FFF763FC401BCC
:1013D0000228F7D9A6E0306C10F080580AD100201E
:1013E0000190306C40F080503064306C00F08050E0
:1013F0000190019847F20007C4F200073868C00561
:1014000024D4386840F480703860FFF743FC054608
:101410003868C0051AD4FFF73DFC401B0228F7D9F5
:1014200080E0E068002851D00020C4F2472001216C
:101430000160FFF72FFC0546306880073FF573AF6A
:10144000FFF728FC401B0228F6D96BE0A568052DA4
:1014500050D0012D52D0306F20F001003067306F36
:1014600020F004004DE00021C0F8801EFFF712FCC0
:10147000054600BF706F80077FF55FAFFFF70AFC7E
:10148000401B0228F6D94DE00027C4F24727002070
:101490003866FFF7FFFB022D05460BD1306880014F
:1014A00058D5FFF7F7FB401B02284FF00300F5D992
:1014B00074E700BF306880017FF56FAFFFF7EAFB8C
:1014C000401B02284FF00300F4D967E70020C4F264
:1014D000472000210160FFF7DDFB054630688007EB
:1014E0007FF528AFFFF7D6FB401B02284FF0030023
:1014F000F4D953E7306F40F004003067306F40F0AC
:1015000001003067FFF7C6FB002D054641F2883722
:1015100014D000BF306F800713D4FFF7BBFB401B14
:10152000B842F7D9032002B0BDE8F081FFF7B2FB63
:10153000401BB8424FF003003FF630AF306F8007DA
:10154000F4D4B8F1000F7FF4FBAE306C20F0805083
:101550003064F5E604F11C052FCD084340EA821003
:10156000D9034FF6FF729143A1F5803140EA05603F
:101570000843706001203866FFF78CFB044600BF0B
:10158000306880013FF509AFFFF784FB001B02289C
:101590004FF00300F4D901E780B501F08FF880BD6A
:1015A00070470000704700007047000010B590F8C9
:1015B0003C20012A4FF0020252D0012380F83C3037
:1015C00080F83D200268D2F804E0D2F808C00C6828
:1015D0002EF07003234341F2FF74C4F20004A242D0
:1015E00053600DDC40F2FF73C4F200039A4215DC35
:1015F000B2F1804F29D040F20043C4F2000322E050
:1016000040F2FF33C4F201039A4212DC41F60003B8
:10161000C4F200039A4218D0002312E040F60003FF
:10162000C4F200039A4210D040F60043C4F2000313
:1016300009E044F20003C4F201039A4205D040F2EB
:101640000043C4F201039A4204D149682CF080039C
:10165000194391600121002280F83D1080F83C2060
:10166000104610BD002804BF0120704710B5044685
:1016700090F83D0078B9002084F83C00204601F045
:101680004BFAA06C20B941F2D560C0F60000A0640E
:10169000A16C20468847022084F83D002068211D67
:1016A00001F046F8012084F8460084F83E0084F8F2
:1016B0003F0084F8400084F8410084F8420084F838
:1016C000430084F8440084F8450084F83D0000207D
:1016D00010BD000010B586B00021CDE90411CDE9A0
:1016E0000211006841F20042C4F2000290420191EE
:1016F0002FD040F60041C4F20001884240D10020C2
:1017000043F640010090C4F202010A6842F0080268
:101710000A600A6802F008020092009A009051F8EC
:10172000102C42F0010241F8102C51F8101C01F06D
:101730000101009100990221CDE90111CDE90310C9
:1017400000200591C4F2020001A9FFF7C9F9322473
:101750000EE043F640000091C4F202000168372415
:1017600041F020010160006800F020000090009826
:10177000204600210022FFF749FC2046FFF742FCEB
:1017800006B010BD90F83D1001291CBF0120704724
:10179000022180F83D10006841F2FF72C168C4F276
:1017A0000002904241F00101C1600DDC40F2FF7186
:1017B000C4F20001884215DCB0F1804F29D040F21C
:1017C0000041C4F2000122E040F2FF31C4F2010105
:1017D000884212DC41F60001C4F20001884218D0B0
:1017E000002112E040F60001C4F20001884210D04E
:1017F00040F60041C4F2000109E044F20001C4F2E5
:101800000101884205D040F20041C4F20101884242
:1018100006D1816801F00701062904BF0020704746
:10182000016841F00101016000207047704700002D
:101830007047000070470000B0B5044690F83C00C7
:10184000012804BF0220B0BD0D460120082A84F8FB
:101850003C000CD0042A18D00ABB2068D5E900123D
:10186000EB6801F0F9F9206850F8181F08E02068CB
:10187000D5E90012EB6801F073FA206850F81C1FDC
:1018800021F00C010160A96817E02068D5E9001279
:10189000EB6801F047FA206850F8181F08E020684C
:1018A000D5E90012EB6801F075FA206850F81C1FAA
:1018B00021F440610160A9680902026811430160D6
:1018C000002084F83C00B0BD002804BF0120704710
:1018D00010B5044690F83D0078B9002084F83C002B
:1018E000204601F019F9206D20B941F63910C0F6F3
:1018F00000002065216D20468847022084F83D00C5
:101900002068211D00F014FF012084F8460084F8AF
:101910003E0084F83F0084F8400084F8410084F8D9
:10192000420084F8430084F8440084F8450084F8B9
:101930003D00002010BD00007047000010B50446B7
:1019400041B1082909D0042914BF04F1410004F170
:101950003F0004E004F13E0001E004F140000078A3
:1019600041B1082909D0042914BF04F1450204F14A
:10197000430204E004F1420201E004F144020128C0
:101980004FF00100127808BF012A00D010BD0220DC
:1019900041B1082909D0042914BF84F8410084F812
:1019A0003F0004E084F83E0001E084F8400002209B
:1019B00041B1082909D0042914BF84F8450084F8EE
:1019C000430004E084F8420001E084F844004FEA58
:1019D000B100032806D8236828A252F82000DA684C
:1019E0001043D8602068012200F034FF206841F2E3
:1019F000FF71C4F2000188420DDC40F2FF71C4F2B5
:101A00000001884215DCB0F1804F29D040F200413E
:101A1000C4F2000122E040F2FF31C4F20101884229
:101A200012DC41F60001C4F20001884218D0002106
:101A300012E040F60001C4F20001884210D040F6E6
:101A40000041C4F2000109E044F20001C4F20101C6
:101A5000884205D040F20041C4F20101884206D11B
:101A6000816801F00701062904BF002010BD01684C
:101A700041F001010160002010BD00BF0200000024
:101A800004000000080000001000000010B504462B
:101A900000680169890744BFC1685FEA817138D471
:101AA00020680169490744BFC1685FEA41713BD4BE
:101AB00020680169090744BFC1685FEA01713FD42A
:101AC00020680169C90644BFC1685FEAC16142D4A8
:101AD00020680169C9071CBFC1685FEAC17146D1AE
:101AE00020680169090644BFC1685FEA016146D404
:101AF00020680169490644BFC1685FEA416146D474
:101B000020680169890644BFC1685FEA816146D4E3
:101B100010BD6FF00201016101212177806980070A
:101B200045D0D4F8901048E06FF004010161022123
:101B30002177806910F4407F44D0D4F8901047E0BA
:101B40006FF00801016104212177C069800744D04A
:101B5000D4F8901047E06FF010010161082121775F
:101B6000C06910F4407F43D0D4F8901046E06FF085
:101B700001010161D4F8801020468847B0E76FF07A
:101B800080010161D4F8B01020468847B0E76FF0BB
:101B900040010161D4F8881020468847B0E76FF013
:101BA00020010161D4F8A8102046884710BDD4F860
:101BB000981020468847D4F89C102046884700207B
:101BC00020776DE7D4F8981020468847D4F89C1009
:101BD00020468847002020776AE7D4F898102046EE
:101BE0008847D4F89C10204688470020207767E774
:101BF000D4F8981020468847D4F89C10204688478F
:101C00000020207764E7000080B586B000220592AE
:101C1000CDE9032240F200410068C4F2000188428D
:101C20000292019201D006B080BD43F630000092CE
:101C3000C4F20200036843F002030360006800F08E
:101C4000020000900098332001900220CDE90202AA
:101C5000CDE9042001F5003001A9FEF741FF06B0EF
:101C600080BD000010B5044690F83C00012804BF78
:101C7000022010BD4FEAB2000123032884F83C3053
:101C800014D80FF20602DFE800F002060A0E206800
:101C900000F082FE0AE0206800F0AEFE06E0206858
:101CA00000F0DEFE02E0206800F00EFF002084F865
:101CB0003C0010BD70470000002804BF01207047A1
:101CC00010B5044690F83D0078B9002084F83C0037
:101CD000204600F021FFA06D20B941F62950C0F642
:101CE0000000A065A16D20468847022084F83D00D1
:101CF0002068211D00F01CFD012084F8460084F8B6
:101D00003E0084F83F0084F8400084F8410084F8E5
:101D1000420084F8430084F8440084F8450084F8C5
:101D20003D00002010BD00007047000010B50446C3
:101D300041B1082909D0042914BF04F1410004F17C
:101D40003F0004E004F13E0001E004F140000078AF
:101D500001281CBF012010BD022041B1082909D073
:101D6000042914BF84F8410084F83F0004E084F89B
:101D70003E0001E084F840004FEAB100032806D895
:101D800023682DA252F82000DA681043D86020683A
:101D9000012200F05FFD206840F2004140F48062C3
:101DA000C4F201018A4203D1426C42F4004242640F
:101DB00041F2FF72C4F2000290420DDC40F2FF716A
:101DC000C4F20001884217DCB0F1804F27D040F206
:101DD0000041C4F2000120E040F2FF32C4F20102EF
:101DE000904214DC41F60001C4F20001884216D092
:101DF0000021C4F2010110E040F60001C4F200012C
:101E000088420CD040F60041C4F2000105E044F2E3
:101E10000002C4F20102904201D0884206D18168DA
:101E200001F00701062904BF002010BD016841F040
:101E300001010160002010BD02000000040000004C
:101E40000800000010000000B0B5044690F83C0007
:101E5000012804BF0220B0BD4FEAB2000D460121A7
:101E6000032884F83C1036D8DFE800F0020A12227A
:101E70002068294600F090FD206850F8181F0EE0F9
:101E80002068294600F0B8FD206850F8181F16E0B9
:101E90002068294600F0E4FD206850F81C1F41F03E
:101EA00008010160016821F00401016029690FE067
:101EB0002068294600F008FE206850F81C1F41F4F5
:101EC00000610160016821F48061016029690902F3
:101ED000026811430160002084F83C00B0BD00009E
:101EE000002804BF0120704710B5044690F83D005B
:101EF00078B9002084F83C00204600F00DFE206EEA
:101F000020B941F65170C0F600002066216E2046CF
:101F10008847022084F83D002068211D00F008FC5D
:101F2000012084F8460084F83E0084F83F0084F8DD
:101F3000400084F8410084F8420084F8430084F8AB
:101F4000440084F8450084F83D00002010BD0000E6
:101F50002DE9F04F81B00446006840F20041C4F220
:101F60000001884202D001B0BDE8F08F43F6400185
:101F70000026C4F202010096086840F2D42540F021
:101F800002000860086846F2700100F0020000904C
:101F9000C4F202010098C2F200054FF02069402708
:101FA0004FF48060C5E9001905F110014FF4805A23
:101FB0004FF4804B4FF48072C5E9027681E8010C42
:101FC0004FF440382846EA61C5E90886FEF7EEFC82
:101FD000002818BFFEF7DCFB46F270006562AC63B8
:101FE000A563AC63C4F2020040F234351830C2F28B
:101FF0000005C5E900094FF4806005F11001C5E94D
:10200000027681E8010C4FF48070C5E90708284684
:102010006E62FEF7CBFC002818BFFEF7B9FB46F254
:102020007000A562AC63C4F2020040F294354830FF
:10203000C2F200054FF020614FF04008002685E80D
:10204000030105F10C004FF480694FF4805A4FF4FE
:10205000804B4FF4807280E8400E4FF440372846A2
:10206000EA61C5E90876FEF7A1FC002818BFFEF773
:102070008FFB43F64000E562AC63C4F2020040F21D
:10208000F43500F52050C2F2000528604FF02060C2
:10209000C5E9010805F10C0080E8400E4FF480709E
:1020A000C5E9070728466E62FEF780FC002818BFC6
:1020B000FEF76EFB2563AC632562AC6301B0BDE83F
:1020C000F08F00007047000070470000B0B50D466B
:1020D000044641B1082D09D0042D14BF04F141007C
:1020E00004F13F0004E004F13E0001E004F140008F
:1020F0000078022804BF0220B0BD45B1082D09D0E8
:10210000042D14BF04F1410004F13F0004E004F188
:102110003E0001E004F140000078012801D112B92D
:102120000BB10120B0BD022045B1082D09D0042D0E
:1021300014BF84F8410084F83F0004E084F83E00B6
:1021400001E084F840004FEAB500032800F28980DE
:10215000DFE800F002224263606A42F67901C0F6CD
:102160000001C163606A42F6E501C0F60001016446
:10217000606A42F62111D4F800C0C0F60001C164C3
:10218000606A0CF1340C11466246FEF777FC0028B9
:10219000C7D14FF4007060E0A06A42F67901C0F642
:1021A0000001C163A06A42F6E501C0F600010164C6
:1021B000A06A42F62111D4F800C0C0F60001C16443
:1021C000A06A0CF1380C11466246FEF757FC002855
:1021D000A7D14FF4806040E0E06A42F67901C0F692
:1021E0000001C163E06A42F6E501C0F60001016446
:1021F000E06A42F62111D4F800C0C0F60001C164C3
:10220000E06A0CF13C0C11466246FEF737FC0028F0
:102210007FF487AF4FF400601FE0206B42F6790136
:10222000C0F60001C163206B42F6E501C0F6000173
:102230000164206B42F62111D4F800C0C0F6000101
:10224000C164206B0CF1400C11466246FEF716FC8F
:1022500000287FF466AF4FF480502168CA681043AD
:10226000C86020682946012200F0F4FA206840F294
:10227000004140F48062C4F201018A4203D1426C01
:1022800042F40042426441F2FF72C4F20002904202
:102290000DDC40F2FF71C4F20001884217DCB0F19E
:1022A000804F27D040F20041C4F2000120E040F20C
:1022B000FF32C4F20102904214DC41F60001C4F284
:1022C0000001884216D00021C4F2010110E040F65E
:1022D0000001C4F2000188420CD040F60041C4F273
:1022E000000105E044F20002C4F20102904201D074
:1022F000884206D1816801F00701062904BF002049
:10230000B0BD016841F0010101600020B0BD0000D6
:102310007047000070470000002A04BF012070478A
:1023200090F83C30012B04BF02207047012380F855
:102330003C3090F83D30012B15D11A2900F23F8036
:10234000DFE801F021232527292B2D2F31333537C5
:10235000393B0E3F4245484B4E5154575A5D600041
:10236000C0F8802050E090F83D300BB101214CE0E6
:102370000D294FD8DFE801F007090B0D0F111315D8
:1023800017191B1D1F2182643EE0C2643CE00265F8
:102390003AE0426538E0826536E0C26534E00266C4
:1023A00032E0426630E082662EE0C2662CE00267D0
:1023B0002AE0426728E0826726E0C26724E0012124
:1023C00023E0C0F884201FE0C0F888201CE0C0F89B
:1023D0008C2019E0C0F8902016E0C0F8942013E09B
:1023E000C0F8982010E0C0F89C200DE0C0F8A020B4
:1023F0000AE0C0F8A42007E0C0F8A82004E0C0F874
:10240000AC2001E0C0F8B0200021002280F83C2080
:10241000084670470121F8E7B0B5044690F83C0043
:1024200001284FF0020008BFB0BD012584F83C50E0
:1024300084F83D00204600F0B9FB00284FF0010071
:1024400009D12068C16821F04001C160C16821F450
:102450008041C1600020002184F83D5084F83C1088
:10246000B0BD0000704700007047000070470000DA
:1024700070470000704700007047000010B5044628
:102480000068416994F83D20212A0ED111F08001A5
:102490000BD0416921F080014161606B002818BFB9
:1024A000FEF778F9204600F007FD2068416994F8AE
:1024B0003E20222A0ED111F040010BD0416921F0BB
:1024C00040014161A06B002818BFFEF763F9204668
:1024D00000F0DCFC002010BD7047000070B586B035
:1024E000002604460596CDE9036641F200402168C6
:1024F000C4F2010081420296019601D006B070BD7F
:1025000043F630010096C4F202014A6900F57440B6
:1025100042F020024A614A6902F020020092009AC9
:1025200000960A6842F004020A60096801F004019A
:102530000091009940210191122102910221039101
:10254000032104910821059101A9FEF7C9FA40F27F
:10255000544546F22840C2F20005C4F202004FF092
:1025600020614FF480624FF4807385E843004FF49C
:102570000030C5E90362C5E90566EB61C5E90806F7
:102580002846FEF713FA002818BFFEF701F9A563E5
:10259000AC6306B070BD000010B590F83E30202B43
:1025A0000BD100294FF0010418BF002A01D12046A9
:1025B00010BD90F83C30012B01D1022010BD012349
:1025C000002480F83C30046300F020FD204610BD5C
:1025D000D2B190F83C30012B04BF02207047012398
:1025E00080F83C3090F83D30202B13D10C2914D8C2
:1025F000DFE801F007232629352C2F321313131D92
:102600002000426400212CE0016C41F020010164B3
:102610000120704790F83D302BB1016C41F0200152
:10262000016401211DE00C2904D00B29F5D1C266FB
:10263000002116E00267002113E08264002110E00F
:10264000C26400210DE0026500210AE082650021DC
:1026500007E0C265002104E00266002101E0426556
:102660000021002280F83C20084670477047000097
:10267000704700007047000070470000FEE7000050
:10268000FEE700007047000000F0070080F007033D
:10269000042B28BF04234FF0FF3C03380CFA03F34C
:1026A00038BF0020994381400CFA00F022EA000074
:1026B000084370477047000070470000B0B501380C
:1026C0000024B4EB106F1CBF0120B0BD4EF210050A
:1026D000CEF2000568604FF0FF300F2101F004FBDF
:1026E0000720AC6028602046B0BD000080B5FEF732
:1026F00017FC80BD4EF68850CEF20000016841F410
:10270000700101604FF0006140F8801C70470000CC
:1027100080B540F2BC50C2F20000FFF7B7F980BDAF
:1027200080B540F27060C2F20000FFF7AFF980BDE3
:1027300010B540F6FF3E0368C4F2000E40F2004CB4
:102740007045C4F2010C0FDCB0F1804F19D040F29B
:102750000042C4F20002904213D040F60002C4F2DC
:10276000000290420DD010E040F60042C4F2000298
:10277000904206D0604504D00022C4F2010290428B
:1027800003D14A6823F07003134341F6FF72C4F289
:10279000000290420DDC70451FDCB0F1804F41D04B
:1027A00040F20042C4F2000290423BD040F60002E8
:1027B00021E043F6FF72C4F20102904220DC42F2B3
:1027C0000002C4F2000290422CD00022C4F20102A6
:1027D000904227D0604525D028E040F60042C4F260
:1027E000000290421ED041F60002C4F20002904264
:1027F00018D041F60042C4F20002904212D015E017
:1028000044F20002C4F2010290420BD044F60002EE
:10281000C4F20102904205D044F20042C4F2010227
:10282000904203D1CA6823F44073134323F080021B
:102830004B69D1F800E08C681A430260C46240F42E
:102840008062C0F828E0624504BF09690163012184
:10285000416110BD80B501F01F014FF0010CD0F8AF
:1028600020E00CFA01F32EEA03030362036A02FA82
:1028700001F11943016280BD10B5846B616A814228
:1028800011D0A16A814216D0E16A81421BD0216B2E
:1028900081421FD1C06908210028217704BF01208F
:1028A00084F8410016E0C16901200029207708BFA3
:1028B00084F83E000EE0C0690221217750B9012062
:1028C00084F83F0006E0C0690421217710B9012097
:1028D00084F84000D4F89C102046884700202077D8
:1028E00010BD000010B5846B616A81420AD0A16AF4
:1028F000814209D0E16A814208D0216B814207D12F
:10290000082004E0012002E0022000E004202077FB
:10291000D4F8A010204688470020207710BD000082
:1029200010B5846B616A81420CD0A16A81420ED0DD
:10293000E16A814211D0216B814214D0012084F8D8
:102940003D0015E00120207784F83E0010E00220D1
:102950002077012084F83F000AE00420207701203E
:1029600084F8400004E008202077012084F841002A
:10297000D4F8A410204688470020207710BD00001E
:10298000D0F808C011432CF47F4C41EA032141EAFE
:102990000C0181607047000070B5026A40F200458A
:1029A00022F001020262036A4268D0F818C08E6801
:1029B000D1F800E023F0020340F48064C4F2010582
:1029C000AC4243EA060305D1CE6823F00C0326F09F
:1029D00004063343AC4205D1D1E9054522F44072E7
:1029E00022432A432CF0730646EA0E0642608661B3
:1029F00049684163036270BDF0B5026A40F2004568
:102A000022F010020262036A4268D0F818C08E6891
:102A1000D1F800E023F0200340F48064C4F2010503
:102A2000AC4243EA061307D1CE686FF0400723F0AB
:102A3000C00307EA06163343AC4207D1D1E9054586
:102A400022F4406242EA840242EA85022CF4E6471C
:102A500047EA0E2742608761496881630362F0BDDF
:102A6000F0B5026A40F2004522F480720262036A05
:102A70004268D0F81CC08E68D1F800E023F40073DF
:102A800040F48064C4F20105AC4243EA062307D156
:102A9000CE6840F2FF47360223F44063BE4333431F
:102AA000AC4207D1D1E9054522F4405242EA041272
:102AB00042EA05122CF0730747EA0E074260C7612D
:102AC0004968C1630362F0BD70B5026A40F2004616
:102AD00022F480520262026A4368D0F81CE00C685B
:102AE000D1F808C040F48065C4F20106B54204D1B3
:102AF0004D6923F4804343EA85132EF4E64646EA03
:102B000004264360C66122F40052496842EA0C324E
:102B10000164026270BD000070B542F21131C0F66E
:102B2000000142F2153242F2654342F2694C41F62D
:102B3000310E41F6350441F6B545C0F60002C0F647
:102B40000003C0F6000CC0F6000EC0F60004C0F68C
:102B5000000542F2C506C0F8801000F19401C0F6ED
:102B60000006C0F88420C0F88830C0F88CC0C0F8D7
:102B700090E070C142F2C90141F2A155C0F60001D6
:102B800041F62D0241F2A55341F2A956C0F60005C7
:102B900000F1A00CC0F60002C0F60003C0F600066B
:102BA0008CE84E00C0F8B05070BD000080B50068E1
:102BB000826822F0770ED1E900C222F0070343EACF
:102BC0000E0343EA0C0E6FF0030303EB3213032BE7
:102BD000C0F808E023D8DFE803F002161D24BCF19A
:102BE000050F04BF012080BD026A036A23F00103C0
:102BF00003628369096923F0F00343EA01118161EB
:102C00000262002080BD8B680A69194600F012F844
:102C1000002080BD8B680A69194600F071F8002019
:102C200080BDD1E9022C0B696146FFF7A9FE0020A7
:102C300080BD0000D0F820C0036A23F001030362C6
:102C4000836923F0F00343EA02122CF00A031943CC
:102C5000826101627047000010B5D0F820C041F2D7
:102C6000FF742CF0010CC0F820C0D0F818E0D0F8A8
:102C700020C0C4F20004A0420DDC40F2FF74C4F294
:102C80000004A04215DCB0F1804F29D040F200448E
:102C9000C4F2000422E040F2FF34C4F20104A04276
:102CA00012DC41F60004C4F20004A04218D0002453
:102CB00012E040F60004C4F20004A04210D040F636
:102CC0000044C4F2000409E044F20004C4F2010428
:102CD000A04205D040F20044C4F20104A0420CD14D
:102CE0002EF00304224363F307122CF00A0301F0D1
:102CF0000A0119448261016210BD4EF00102F2E73F
:102D0000036A23F0100303628369D0F820C023F420
:102D1000704343EA02322CF0A00343EA01118261BE
:102D20000162704710B5D0F820C012022CF0100CD0
:102D3000C0F820C0D0F818C0D0F820E04FF2FF044F
:102D4000A2432CF4734C63F30F322EF0A00301F076
:102D50000A0142EA0C0243EA01118261016210BDDC
:102D600080B5D0F820C063F307122CF4807CC0F843
:102D700020C0D0F81CC0D0F820E02CF0F30C2EF4CA
:102D8000206301F00A0142EA0C0243EA0121C26118
:102D9000016280BD10B5D0F820C012022CF4805C16
:102DA000C0F820C0D0F81CC0D0F820E04FF2FF04DB
:102DB000A2432CF4734C63F30F322EF4204301F042
:102DC0000A0142EA0C0243EA0131C261016210BD0C
:102DD00010B5846B2068406994F83D10212907D113
:102DE00010F0800004D00020E084204600F064F859
:102DF0002068406994F83E10222907D110F0400065
:102E000004D00020E085204600F040F8206C616D81
:102E100040F0100020642046884710BD80B501684E
:102E2000806B0968C90518D40021C1850168CA688A
:102E300022F48072CA604A6922F001024A614A693A
:102E400022F040024A61202280F83E20026B012AD3
:102E500003D1CA6822F01002CA60016B012903D1B4
:102E6000826E818D904780BD016D884780BD0000D6
:102E700080B5806B016B012904D1818D826E490878
:102E8000904780BDC16C884780BD00000168CA685A
:102E900022F49072CA604A6922F001024A61026B10
:102EA000012A03D1CA6822F01002CA60202180F8EA
:102EB0003E100021016370470168CA6822F0C00219
:102EC000CA60202180F83D107047000070B542F2C2
:102ED0007961C0F6000142F2756242F2716342F21A
:102EE0006D6C42F2D94E42F27144C0F60002C0F657
:102EF0000003C0F6000CC0F6000EC0F6000442F25B
:102F0000794542F27546416400F15801C0F600056A
:102F1000C0F600068264C364C0F850C0C0F854E034
:102F200070C142F26D41C0F60001816670BD0000C3
:102F300010B504460068D4E902C22369016921F48E
:102F4000405111430161626943EA0C01E369114395
:102F5000C268194349F20C639A431143C160416945
:102F6000A26921F4407141F20043114340F48062B0
:102F7000C4F201039A42416102D1FEF723F901E054
:102F8000FEF70EF9E16963681922B1F5004FA0FB65
:102F900002011CD15A00DB0FFDF76CF948F21F51FA
:102FA000C5F2EB11A0FB01235A096FF0630302FB8A
:102FB0000300322303EBC000A0FB01014FF4F870C3
:102FC00000EA111000EB0210C1F342111AE09A005E
:102FD0009B0FFDF74FF948F21F51C5F2EB11A0FB13
:102FE00001235A096FF0630302FB0300322303EB52
:102FF0000010A0FB0101F02000EA511000EB0210CC
:10300000C1F3431122680843906010BD70B582B0CF
:10301000134600260446816283850664222084F8D4
:103020003E000A462168A06B42F61D6C42F6716EA6
:1030300042F6D155C0F6000CC0F6000EC0F60005F1
:103040000431C0E90FCEC0E91356FDF717FD019614
:1030500021680868019048680190019884F83C60F4
:10306000C86840F48070C860486940F00100486159
:10307000486940F0400200204A6102B070BD000083
:10308000FEE7000080B500F051FE00F069FE00F0A0
:1030900075FE00F07BFE80BD70B592B006AC204698
:1030A0003021FDF75FF9002543F640000595CDE995
:1030B0000355CDE901550095C4F2020001680226CE
:1030C00041F080510160006800F08050009000984D
:1030D00047F200000095C4F20000016841F480410D
:1030E0000160006800F48040009000980120099081
:1030F00010200A9008200696CDE90C650E90A820B5
:10310000CDE90F06072011902046FEF7A3F80F2007
:10311000CDE901064FF4A05004904FF48050059083
:1031200001A805210395FDF785FF12B070BD0000D1
:1031300080B5007F0138072888BF80BDDFE800F038
:10314000041C71337171714A40F20500C2F2000033
:10315000007840F20A01C2F2000101EB400131F8AF
:10316000020DB0F57A7F84BF4FF47A70088040F288
:10317000A000C2F2000046E040F20500C2F20000EA
:10318000407840F20A01C2F2000101EB400131F83F
:10319000020D40F2A002C2F20002B0F57A7F02F105
:1031A0008C002DD82FE040F20500C2F2000080789C
:1031B00040F20A01C2F2000101EB400131F8020DB8
:1031C00040F2A002C2F20002B0F57A7F02F58C70E4
:1031D00016D818E040F20500C2F20000C07840F2B4
:1031E0000A01C2F2000101EB400131F8020D40F288
:1031F000A002C2F20002B0F57A7F02F5D27002D9C5
:103200004FF47A720A8040F20402C2F2000212788D
:1032100009880023012A18BF194689B2002200F04C
:10322000D7FC80BD70B540F29870C2F20000006813
:1032300000F022FC40F6AC0540F20A066FF00104F3
:10324000C2F20005C2F20006286800F0F5FCBDEEEF
:10325000C00A3119023410EE100A062C4880F3D14E
:1032600070BD000080B540F29870C2F200000068A6
:1032700000F04EFC80BD000080B5007F04280AD01D
:10328000012818BF80BD40F29870C2F200000068AB
:1032900000F030FC80BD40F29870C2F2000000687F
:1032A00000F004FC80BD0000B0B540F2D020C2F2B6
:1032B0000000007801282FD140F6A00440F29405C8
:1032C000C2F20004C2F200056068696800EE100AEC
:1032D00001EE101A30EE410A10EE100A01F0E4FA85
:1032E00041EC100B40F62000C2F2000000F088FB19
:1032F000A068A96800EE100A01EE101A30EE410A2B
:1033000010EE100A01F0D0FA41EC100B40F2A07060
:10331000C2F2000000F074FB40F60040C4F202006C
:103320004FF40041FDF7A8FCB0BD000080B582B0AD
:10333000002043F630010190C4F202010A6842F411
:1033400000120A600A6802F400120192019A0090C9
:103350000868002240F4800008600868002100F43A
:103360008000009000980D20FDF750FE0D20FDF725
:1033700049FE0F2000210022FDF748FE0F20FDF737
:1033800041FE102000210022FDF740FE1020FDF735
:1033900039FE2F2000210022FDF738FE2F20FDF7F7
:1033A00031FE392000210022FDF730FE3920FDF7E3
:1033B00029FE02B080BD00002DE9F04F89B0002544
:1033C00043F630000895CDE90655CDE9045503953F
:1033D000C4F20200016840F2000A41F010010160ED
:1033E0000168C4F2020A01F01001039103990395E8
:1033F00001680AF5805641F004010160016800226D
:1034000001F0040103910399039501684FF0080945
:1034100041F080010160016801F08001039103998E
:103420000395016841F001010160016801F00101AB
:10343000039103990395016841F00201016001685D
:1034400001F00201039103990395016841F008011D
:1034500001600068082100F00800039003983046DE
:103460000296FDF711FC0AF50064204601210122B5
:103470004FF00108FDF708FC0AF540604FF210011B
:1034800000220190FDF700FC04AF30463946CDE93B
:103490000498CDE90655FDF723FB20463946CDE9D2
:1034A0000488CDE90655FDF71BFBCDF810904FF0D1
:1034B000020B4FF0050920463946CDE905B50795C1
:1034C000CDF82090FDF70CFB0020C1F21100CDF8E3
:1034D0001080CDE9050550463946FDF701FB102067
:1034E000CDE9040B0620CDE9065508905046394633
:1034F000FDF7F6FAE020CDE9040B50463946CDE958
:103500000655CDF82090FDF7EBFA04200AF5806609
:10351000CDE90405304639460695FDF7E1FA4FF44A
:103520008060CDE9040B30463946CDE90655CDF82B
:103530002090FDF7D5FA019E4FF21000CDE9040866
:1035400030463946CDE90655FDF7CAFA4FF4A45086
:10355000CDE9040B0620CDE90655089020463946F2
:10356000FDF7BEFA4FF40070CDE904055046394628
:103570000695FDF7B5FA4FF4E050CDE9040B0A20AB
:10358000CDE90655089050463946FDF7A9FA2020A6
:10359000CDE90405304639460695FDF7A1FA00202D
:1035A000C1F2110000F58030CDF810B0CDE905056D
:1035B00002983946FDF794FA09B0BDE8F08F000093
:1035C00080B540F2B44045F20041C2F20000C4F2BE
:1035D000000141F6802200234FF4804CC0F2060225
:1035E00080E80E00C0E9033CC0E90533C0E90733B9
:1035F000FDF794FB80BD0000B0B58AB040F20854DE
:1036000040F200400025C2F20004C4F200008B2109
:10361000C4E9000520460995CDE90755CDE90555D2
:10362000CDE90355CDE90155C4E902512561A561F4
:10363000FEF756FC08A92046CDE90855FDF7B6FF70
:103640006020CDE901050395059501AD2046294689
:103650000022FEF7F9FB204629460422FEF7F4FB80
:10366000204629460822FEF7EFFB204629460C2279
:10367000FEF7EAFB2046FEF7C7FA0AB0B0BD00002D
:1036800070B594B040F2BC5440F60040C2F2000461
:10369000C4F20000002646F65F510E2284E8430083
:1036A00020461396CDE91166CDE90F660D96CDE95A
:1036B0000B66CDE90966CDE90766CDE90566CDE97A
:1036C0000366CDE90166C4E90326A661FDF7CAFFDA
:1036D0002046FEF7F1FA2046FEF7F6F804200F9098
:1036E0006020CDE910060FA920461396FEF794FE40
:1036F0000CA92046CDE90C66FDF758FF092005AD61
:103700000596CDE906062046294600220996FEF7D1
:10371000A9FA01200196CDE9020601A9204604225A
:103720000496FEF789F80F200690204629460822C5
:10373000FEF798FA14B070BDB0B582B040F2706474
:1037400041F200400025C2F20004C4F2000044F23D
:103750009F11C4E900052046CDE90055C4E9025196
:10376000A561FDF77FFF69462046CDE90055FDF7CD
:103770001DFF02B0B0BD000080B540F2247041F2E0
:103780000041C2F20000C4F2010100234FF0040C1A
:103790004FF4E13280E80E00C0E90333C0E905C30D
:1037A000C361FDF77DFA80BDC0E9001270470000DB
:1037B0002DE9F04F81B02DED068B90ED080B0446FE
:1037C00090EC048B90ED0AAB51EC100B02460B46CB
:1037D00000F082FB05460E4651EC190B53EC182BFA
:1037E00000F078FF02460B462846314600F074FE92
:1037F0000546894651EC1A0B02460B4600F06CFB5D
:1038000094ED0C0B82465BEC107B3A465B46884697
:1038100000F060FF94ED120B53EC102B00F05CFEF7
:1038200002460B462846494600F056FB05460E4622
:10383000504641463A465B4600F04EFB02460B4678
:103840002846314600F0FCFB41EC100B84ED120BD6
:10385000BDEC068B01B0BDE8F08F00000000000059
:1038600070B52DED068B90EC040B044690ED068BA5
:1038700090ED0C9B51EC110B53EC102B00F02CFB3A
:103880009FED190B53EC102B00F026FE054641EC82
:10389000100B94F87A0094ED10AB80F001000E4606
:1038A00084ED180B00F08DFD02460B4651EC180B11
:1038B00000F012FE02460B4651EC190B00F00CFE14
:1038C00002460B462846314600F006FE02460B46ED
:1038D00051EC1A0B00F000FB41EC100B84ED100BC7
:1038E000BDEC068B70BD00BF000000000000E03F93
:1038F00010B590ED020B90ED041B044651EC110B3A
:1039000053EC102B00F0E8FD41EC100B84ED0E0B96
:1039100010BD000070B52DED048B044690F87900C1
:1039200094ED148B80B194ED1A9B55EC186B53EC0D
:10393000192B3046294601F005F838B1B0EE498A16
:103940000120F0EE698A0BE0002009E094ED1C8B69
:10395000304653EC182B294600F0EDFF20B901202A
:1039600084ED168B84F87800BDEC048B70BD0000EC
:1039700010B52DED028B0446FFF7BAFF2046FFF786
:103980006FFF2046FFF714FF94ED0E0B94ED101B14
:1039900094ED128B51EC100B53EC112B00F09CFAB0
:1039A00053EC182B00F098FA41EC100B84ED140B3B
:1039B000BDEC028B10BD0000F0B581B09FED0E1B79
:1039C00056EC107B54EC115B384631462A462346B0
:1039D00000F0A3FF10B1012001B0F0BD3846314620
:1039E0002A46234600F0AEFF002814BFFF20002027
:1039F00001B0F0BD00BF00BF0000000000000000EB
:103A000010B5044680ED020BFFF7B2FF2046FFF72A
:103A100081FF204600F006F894ED020B84ED000BC8
:103A200010BD0000B0B5044690F87900D0B194F80C
:103A30007B00B8B194ED140BFFF7BEFF94ED180BAB
:103A40000546FFF7B9FF281AB0FA80F094F878100D
:103A5000400984F87C00002918BF0121084084F83F
:103A60007A00B0BD002084F87A00B0BD0021C0E922
:103A70000011C0E90211704710B5044600F024F8A7
:103A8000E08EA18AE08281420CD1002084F83900C6
:103A9000811C6218128B20F00103C8B21428E25274
:103AA000F6D310BD012084F8390010BD80B590F820
:103AB0003810002908BF80BDC16B002280F8382073
:103AC0000846FEF7DBFC80BD4FF6FF714FF0FF327A
:103AD00000F1180C828200BF0CEB02035B7801320C
:103AE0001D2AA1EB0301F7D18182704700EB410051
:103AF0007047000080B590F83810002908BF80BDDD
:103B0000C26B00F1180110462022FEF745FD80BD72
:103B100090F83810002904BF012180F83810704750
:103B200070B50446DDE90465C0E90F121046194678
:103B3000FDF704FF206C3146FEF7F8F8206C2946AB
:103B4000FEF7F4F8204670BD002000224A40090923
:103B5000022800F10100F9D302F00F0070470000C5
:103B600010B508888A7842EA4000002284B28A7040
:103B70002146FFF7E9FF40EA041080B210BD0000C3
:103B8000F0B581B00446408918B10138608101B0B8
:103B9000F0BD268946B104F10C004021FCF7E2FBA0
:103BA000701E208101B0F0BD0D460026122700BF17
:103BB00025FA06F000F00101204600F01DF844F857
:103BC0002700013F022F06F10106F1D1DFE70000D7
:103BD00010B504460088884203D1A078904208BFFF
:103BE00010BD21802146A270FFF7BAFF0146204692
:103BF000FFF7C6FF10BD0000406888407047000016
:103C000010B50446481C00F0DCFB9FED090B53EC9B
:103C1000102B00F061FC00F0A7FB6FF00301606067
:103C2000621804313C291061FAD1204610BD00BF52
:103C3000000000000000D83F016890ED021A0988DA
:103C400090ED012A00EE101AB8EE400A31EE000A9B
:103C500020EE020A7047000010B52DED048B0446DB
:103C600008461146B0EE608AB0EE409AFFF73EFF7C
:103C7000206084ED019A204684ED028ABDEC048B1D
:103C800010BD40F29000C2F20000006870470000D2
:103C900010B50446002808BF012400BF2046FCF7E9
:103CA0009DFB002818BF10BDFFF7EBFF08B1804750
:103CB000F4E7002010BD0000002848BF704700F066
:103CC0001F01012202FA01F14EF200124009CEF268
:103CD000000242F8201070474EF60C50CEF2000061
:103CE0000068C0F3022070474EF6145300F00F0234
:103CF000CEF2000309011A4400F16043B0F1FF3F26
:103D0000C8BF03F564421170704700004EF60C51B5
:103D1000CEF200010A684FF6FF031A4060F30A2250
:103D200042F0806040F0FD700860704710B540F2CE
:103D3000A004C2F2000420468B21FFF761FF04F1CA
:103D40008C008B21FFF75CFF04F58C708B21FFF753
:103D500057FF04F5D2708B21FFF752FF10BD000012
:103D600080B540F2780040F2B441C2F20000C2F2E5
:103D700000016422FFF718FD80BD000080B540F609
:103D80002000C2F20000FFF771FE80BD80B540F256
:103D9000A070C2F20000FFF769FE80BD82B0FDF79F
:103DA000CDF8FFF779F9FFF707FBFFF7BFFAFFF749
:103DB00023FCFFF705FCFFF7DFFCFFF761FCFFF7D3
:103DC000BBFC40F20854C2F2000443F23112C0F6C8
:103DD000000220461521FEF79FFA40F2A005C2F22C
:103DE000000505F10C022046002120234FF00008B9
:103DF000FEF76CF9012605F19802204604212023E4
:103E000084F83D60FEF762F905F5927220460821BC
:103E1000202384F83D600827FEF758F905F5D8728D
:103E200020460C21202384F83D60FEF74FF940F234
:103E3000BC54C2F2000443F26522C0F600022046E0
:103E40001221FEF769FA43F27922C0F600022046F9
:103E50001421FEF761FA40F27065C2F2000543F2E8
:103E6000A922C0F6000228460E21FEF755FA284680
:103E7000FDF788FC40F22475C2F2000543F22522CA
:103E8000C0F6000228460321FEF7A2FB4420FFF7FC
:103E9000FFFE2946224604230646CDF800800197FE
:103EA000FFF73EFE40F29870C2F2000006600C2060
:103EB000FFF7EEFEDFED070AB7EE000A31460222F9
:103EC000FFF7CAFE40F6AC01C2F20001086000BF75
:103ED000FEE700BF00007AC410B591EA030F48BFA7
:103EE00083F0004300F1FE83841A71EB030C05D2CA
:103EF000121943EB0C03001B61EB0C014FEA115448
:103F0000A4EB135CDFF81CE11EEA430F18BF9EEA26
:103F1000445F73D021EA045123EA0E0343F4801373
:103F2000DCF1200E32D322FA0CFE10EB0E0023FA45
:103F30000CFE41EB0E01CCF1200E03FA0EFE10EB4D
:103F40000E00CCF1200E51F10001B1F5801F32D2EC
:103F500001EB045112FA0EF2BDE8104058BF704751
:103F6000401C38BF5FEA420218BF7047002814BFE8
:103F700020F0010041F100014FEA410313F5001F59
:103F800038BF7047A1F1C04100F09EBB012A43EB4E
:103F90000302ACF1200CDCF11F0E32BF4FF0000E1B
:103FA00023FA0CF310EB030041EB0451B4EB115F67
:103FB000D0D0A1EB045101F58011490801EB045167
:103FC0005FEA30000ED350F1000038BF12FA0EFE47
:103FD00008D1BDE81040C9E7401C38BF5FEA420283
:103FE000CAD1C3E7BDE810404FEA410313F5001FF3
:103FF00038BF7047A1F1C04100F066BB9EEA445F44
:1040000008D011EA5E0FBDE8104004BF01F0004186
:1040100000207047BDE8104070B500F007FB00BFFE
:1040200064FBBE3E0000E0FF491058BFC1F14041B3
:104030005B1058BFC3F140438B42EFF300807047E1
:104040002DE9C04130B4DFF8A0C23CEA111418BF1A
:104050003CEA131400F0EC801CEA111481EA030519
:1040600044EAD57418BF1CEA131500F0C780A4EB0E
:10407000050404F17F7404F500344FF0004545EA6F
:10408000C12145EAC32341EA505143EA52534FEA62
:10409000C0204FEAC222994208BF904200F09C80A3
:1040A0004FEA13650FF24016765D4FEA134506FBA3
:1040B00005F7C7F1807706FB07F74FEAD737A7FB6D
:1040C00003687642A7FB06CEC8F5803838BFA8F152
:1040D000010807FB08E6A6FB028C4FF0000EE6FB8A
:1040E00003CEDCF1000CCEF1004E38BFAEF1010E74
:1040F000A6FB0C584FF00007E6FB0E87A1FB08C695
:10410000A0FB07CE16EB0E064FF0000545F10005AB
:10411000E1FB076515F1E04E7EBFA4F580345FEA50
:1041200046066D4116F1800745F100054FEA172755
:1041300047EA05674FEA15254FEA0666A6F1DE460F
:10414000B6F1805F1FD9384605EBC47124F0010C2D
:1041500001EB0C11BCF1FE6F02D8F0BCBDE8008190
:1041600024425CBF01F5801E9EEAC47F02D4F0BCED
:10417000BDE80081244238D4A1F1C041F0BCBDE8C3
:10418000004100F0A1BA4FEAD02040EA41504FEA86
:10419000D1214FEAD22242EA43524FEAD323A7FB6E
:1041A000028607FB036605FB02661EEA0E0F58BF78
:1041B000A6EB0056B6EB00564FEA520E4EEAC37E0F
:1041C00018EB0E0E56EB530EBDD518EB02085E41F0
:1041D0007F1C55F10005B6E74FF480154FF000073E
:1041E0004FF000064FF00008ADE701F1C04101F0CB
:1041F00000414FF00000F0BCBDE800810CEA13154F
:1042000011EA0C1F00D00CE013EA0C1F00F025800F
:104210004FF0000081EA030101F00041F0BCBDE86D
:104220000081F0BCBDE8004181EA030100F04CBA16
:10423000F0BCBDE8004170B500F0F8F9097EFC3E25
:1042400000F007B84FF0000081EA030101F00041DF
:10425000704781EA030100F037BAF0BCBDE80041C5
:1042600022494FF000007047FFFDFBF9F7F5F4F22B
:10427000F0EEEDEBE9E8E6E4E3E1E0DEDDDBDAD801
:10428000D7D5D4D3D1D0CFCDCCCBCAC8C7C6C5C45F
:10429000C2C1C0BFBEBDBCBBBAB9B8B7B6B5B4B376
:1042A000B2B1B0AFAEADACABAAA9A8A8A7A6A5A461
:1042B000A3A3A2A1A09F9F9E9D9C9C9B9A99999825
:1042C0009797969595949393929191908F8F8E8EC8
:1042D0008D8C8C8B8B8A8989888887878685858455
:1042E00084838382828181800000FF070000F87F41
:1042F00051EA030C17D41CF5801F58BFBCF5801F72
:1043000000F10680994218BF704708BF904270477D
:1043100007D711F5801F58BF13F5801F19D4994294
:104320007047894270471CF5801F08D5BCF5801F77
:10433000F7D58B4218BF704708BF824270474FF4D1
:10434000001C1CEB410F38BF1CEB430F01D28B420A
:10435000704770B500F06AF9922449004FF000519F
:104360004FF08053FFF760BE4FEA1153A3F580630F
:10437000D3F11E03A8BFD3F1200C08DB4FF000429D
:1043800042EAC12252EA505232FA03F0704709421F
:104390000BD4102BC4BF0020704703F5787CBCF110
:1043A000FF3F05D04FF0FF3070474FF000007047DF
:1043B00070B500F03BF900BF49922480002070479F
:1043C000F0E7B0FA80F310FA03F10AD0C3F11D034D
:1043D00003F580634FEA03524FEA415002EBD121CB
:1043E00070474FF00000704751EA030C17D41CF5DA
:1043F000801F58BFBCF5801F00F10680994218BF8E
:10440000704708BF9042704707D711F5801F58BF0B
:1044100013F5801F19D499427047894270471CF5E3
:10442000801F08D5BCF5801FF7D58B4218BF704799
:1044300008BF824270474FF4001C1CEB410F38BF8D
:104440001CEB430F01D28B42704770B500F0EEF8C1
:10445000922449004FF080514FF00053FFF7E4BD24
:1044600051EA030C17D41CF5801F58BFBCF5801F00
:1044700000F10680994218BF704708BF904270470C
:1044800007D711F5801F58BF13F5801F19D4994223
:104490007047894270471CF5801F08D5BCF5801F06
:1044A000F7D58B4218BF704708BF824270474FF460
:1044B000001C1CEB410F38BF1CEB430F01D28B4299
:1044C000704770B500F0B2F8922449004FF00051E7
:1044D0004FF08053FFF7A8BD70B5DFF848C11CEA64
:1044E000111E1EBF1CEA13159EEA0C0F95EA0C0F55
:1044F00000F06F8081EA03044EEAD47EAE4421EAE4
:104500004C1123EA4C1341F4801143F48013AEF1B3
:104510007F7EA1FB024CA0FB0365361955EB0C0511
:10452000A1FB034C4CF10003A0FB021C16EB0C0694
:10453000654153F10003094218BF46F0010613F428
:10454000007F0BD14FEA03314FEA053041EA1551A4
:1045500040EA165034036FF003020AE04FEAC32129
:104560004FEAC52041EA555140EA5650F4026FF037
:10457000020202EB2E4201EB025585EACE710AD00F
:104580005FEA440C18BF24F0004450F1000041F1F0
:10459000000120EAD47040F2FE7C624500D270BD7A
:1045A000A84214BF4FF080444FF04044002E08BF93
:1045B0000024BEF1806FA8BFA1F1C041BDE87040EA
:1045C00080F2828001F1C04101F000414FF0000013
:1045D00070470CEA13159EEA0C0F18BF95EA0C0FF2
:1045E00006D081EA030E4FF000000EF0004170BDCE
:1045F00000F01CF88900013E00F007B800F009B88F
:104600004FEA430C5FEA5C5C08D081EA030100F0EA
:104610005BB84FEA410C5FEA5C5CF6D102494FF0AF
:10462000000070470000FF070000F87F0EF1020E47
:104630002EF0030E5EF8046B364205D4012A43EBDC
:10464000030515F5001F12D8012841EB010C1CF5DC
:10465000001F0CD80ED14FEAD17C0CEB4C0C0CF1A6
:10466000020C15F5001F08BF4CEBD37C04E04FF0A3
:10467000080C01E04FEAD37C0CEB4C0526FA05F65A
:1046800006F00706B6F1040C06D20EEB860CBDE868
:1046900070404CF0010C6047DFE80CF0090B02029F
:1046A0004FF00041A1F500214FF0000070BD194608
:1046B0001046012851EB010418BFD4F5001484BF43
:1046C000002001F0004170BD0808A0F500114FEA7C
:1046D0003101704710B591EA030F48BF83F00043E2
:1046E0003FF502AC841A71EB030C07D28CF0004C3E
:1046F000121943EB0C03001B61EB0C014FEA115440
:10470000A4EB135CDFF89CE11EEA430F18BF9EEA9E
:10471000445F00F0B08021EA045123EA6E03524264
:10472000C3EB6E0338BF5B1EDCF1200E25D322FAEB
:104730000CFE10EB0E0043FA0CFE41EB0E01CCF127
:10474000200E03FA0EFE10EB0E00CCF1200E51F1FC
:10475000000129D401EB045112FA0EF2BDE8104019
:1047600058BF7047401C1CBFB2F1004F7047002873
:104770000CBF491C20F00100704712EB020E43EB06
:10478000030218BF4FF0010E4EEA4202ACF1200CBA
:10479000DCF11E0E54D943FA0CFE10EB0E00CCF1E6
:1047A0001E0E51F1FF31D5D50EF1010E12FA0EFE9B
:1047B000404141EB010101EB445C5FEA5C5C10D9D4
:1047C00001EB045110EBDE7038BFBEF1004FBDE8C5
:1047D000104018BF704700280CBF491C20F0010092
:1047E000704730D24FEAD42C24F4006411F5001144
:1047F0001BD0B1FA81F20B3AA41AA41ED2F1200305
:10480000914030FA03F31943904001EBCC7101EB76
:104810000451002CBDE81040A8BF704701F1C04111
:1048200001F000414FF000007047B0FA80F310FA39
:1048300003F100D110BDE41A173C4805C90AE4E7AA
:1048400001EB045110BD49104FEA300001EB045157
:10485000BDE8104002E04FF0000170474A0008BF79
:104860000042F8D0B2F5001F28BF704701F00041A8
:104870004FF0000070479EEA445F07D011EA5E0FD8
:10488000BDE8104004BF002100207047BDE8104083
:1048900070B5FFF7CBFE00BF40DFF63E104683F059
:1048A000004170470000E0FF43004FEAD30C4FEA9D
:1048B0003C0C43401FBF40070CF1605113F0FE4F0A
:1048C00070471CF0006F03D10CF0004100207047CE
:1048D0000CF0004343EA507040EACC0010B500F001
:1048E00038F800BF000000924FEA0001FFF7ECBE6D
:1048F0004FF00041A1F500214FF00000704710B5C6
:10490000FFF7F6FC0CBF0120002010BD10B5FFF72B
:10491000EFFC14BF0120002010BD10B5FFF764FDAF
:104920008CBF0120002010BD10B5FFF75DFD2CBF2E
:104930000120002010BD10B5FFF792FD94BF0120AB
:10494000002010BD10B5FFF78BFD34BF0120002003
:1049500010BD0EF1020E2EF0030E5EF8044B244241
:1049600004D44FEA4102B2F17F4F11D84FEA40031D
:10497000B3F17F4F0CD80ED14FEAD07C0CEB4C0C2E
:104980000CF1020CB2F17F4F08BF4CEBD17C04E07C
:104990004FF0080C01E04FEAD17C0CEB4C0324FAF9
:1049A00003F404F00704B4F1040C06D20EEB840CFB
:1049B000BDE810404CF0010C6047DFE80CF0070840
:1049C00002024FF00040A0F5800010BD08464200F2
:1049D00018BFD2F1807288BF00F0004010BDF1EE28
:1049E000100A4FF6FF71C0F2C03120EA010040F01A
:1049F0004070E1EE100A7047000000000000000067
:104A00000102030406070809000000000102030474
:104A1000384A00080000002018000000C401000807
:104A2000504A000818000020A00E0000E001000815
:104A300055E6FFFF000000000024F400010102031E
:104A40000400460046004600460001001000000039
:040000050800018965
:00000001FF
